:1003D8000410313233340414010101010408FFFF11
:0803E800FFFF040C01010101FB
:10038B00E50825E0FFA2B0E4334FF508E50925E0C9
:10039B00FFA2B1E4334FF509E50A25E0FFA2B2E471
:1003AB00334FF50AE50B25E0FFA2B3E4334FF50B12
:1003BB00E4FF74082FF8E6B4FF0874142FF87601E5
:0C03CB00800674142FF8E4F60FBF04E65F
:0103D7002203
:10049D00E4F547740C2547F8E6FF74142547F8E694
:1004AD006F601CEFB4010A74102547F8E6FF1200C7
:1004BD000374142547F8E6FF740C2547F8A60705C5
:0804CD0047E547C3940440CB4E
:0104D5002204
:1003F0001022C0F9A4B0999282F880908883C6A197
:0F040000868E0832FFFFFFFFFFFFFFFF01210085
:10041C00E5A0541F44E0F5A07580FF53A01FE5A094
:10042C00541F44C0F5A0AF217480A807088002C3F4
:10043C0013D8FCF58053A01FE5A0541F44E0F5A091
:10044C0074322521F8E6F58053A01F0521532107AE
:01045C00227D
:0802AC008F3D8E3C8D3B8C3A26
:1002B400E4F53EE47B0AFAF9F8AF3DAE3CAD3BAC65
:1002C4003A1200EEAF03743F253EF8A607AF3DAEE9
:1002D4003CAD3BAC3AE47B0AFAF9F81200EE8F3DF0
:1002E4008E3C8D3B8C3A053EE53EB408C6753E0710
:1002F400743F253EF8E6700A7432253EF876FFD541
:100304003EEEC3E53E648094804016743F253EF87B
:10031400E62422F8E6FF7432253EF8A607153E804F
:01032400E1F7
:0103250022B5
:0C040F00011C00011F0004180000000088
:1005BB001205DAD2AF7F0212032612049DE51FB497
:0F05CB0001F8E51CB401F3E4F51C1204D680EB33
:1005DA00E5A0541F4480F5A07580FF53A01FE5A035
:0D05EA00541F44A0F5A07580AF53A01F2240
:07000300BF3103751F01224C
:10032600754A0075491075480E754700E4FCFDFED8
:10033600AB4AAA49A948A847120063E47BE87A03B6
:10034600F9F81200EE8F4A8E498D488C47C3E49522
:100356004AF54AE49549F54974019548F548E49506
:1003660047F547AF4AAE49AD48FC78081201918F70
:100376001D854A1E5389F0438901851D8C851E8A79
:04038600D2A9D28C9A
:01038A002250
:03000B00020230BE
:10023000C0E0C0F0C083C082C0D075D000C000C094
:0D02400001C002C003C004C005C006C00715
:10024D00851D8C851E8AE51B2401F51BE4351AF5E9
:10025D001AE43519F519E43518F51812041C1203B2
:10026D008BE47F64FEFDFCAB1BAA1AA919A818C369
:10027D00120180400F751B00751A00751900751855
:04028D0000751C01DB
:10029100D007D006D005D004D003D002D001D000C1
:0B02A100D0D0D082D083D0F0D0E0326B
:1004D6007F0312045D7E0774322EF876FF1EBE017E
:1004E600F6E4FEEF75F00A84742225F0F8E6FD7452
:1004F600322EF8A605EF75F00A84FF0EBE02E4530D
:02050600337F41
:0105080022D0
:02045D008F47C7
:10045F001205F77F9012059040061206087F0022C2
:10046F00E5474440FF1205901205F77F9112059062
:10047F001205361205638F48120608E54875F030ED
:0D048F00A4FFAEF07C007DFF12000E8F4830
:01049C00223D
:100509008F4BEF75F0FFA4FFAEF07C007D30120039
:100519000E8F4B1205F77F901205904002800A7FDB
:0D05290040120590AF4B12059012060822FB
:0A061900120623D2A0120623C2A08D
:05062300007F0BDFFE6B
:0106280022AF
:1005F700D2A0D2A1120623C2A1120623C2A00206CC
:0106070023CF
:10060800C2A0C2A1120623D2A0120623D2A10206BA
:0106180023BE
:02059000AE07B4
:100592007D80ED60125E7004C2A18002D2A11206BB
:1005A20019EDC313FD80EBD2A1120623D2A0A2A1A2
:0805B200920012061EA200B324
:0105BA00221E
:10053600D2A11206237D80ED601BD2A012062330C5
:10054600A10442068004EDF45206C2A0120623ED71
:0C055600C313FD80E2C2A1120619AF061B
:010562002276
:10056300D2A11206237D80ED601BD2A01206233098
:10057300A10442068004EDF45206C2A0120623ED44
:0C058300C313FD80E2D2A1120619AF06DE
:01058F002249
:030000000201A456
:0C01A400787FE4F6D8FD75814B0201EB7A
:10000E00BC000BBE0029EF8DF084FFADF022E4CCD6
:10001E00F875F008EF2FFFEE33FEEC33FCEE9DEC9F
:10002E00984005FCEE9DFE0FD5F0E9E4CEFD22EDE5
:10003E00F8F5F0EE8420D21CFEADF075F008EF2F2F
:10004E00FFED33FD4007985006D5F0F222C398FD20
:05005E000FD5F0EA22BD
:10006300E88FF0A4CC8BF0A42CFCE98EF0A42CFC3C
:100073008AF0EDA42CFCEA8EF0A4CDA8F08BF0A4BA
:100083002DCC3825F0FDE98FF0A42CCD35F0FCEB19
:100093008EF0A4FEA9F0EB8FF0A4CFC5F02ECD39DE
:0F00A300FEE43CFCEAA42DCE35F0FDE43CFC224B
:1000B20075F008758200EF2FFFEE33FECD33CDCC05
:1000C20033CCC58233C5829BED9AEC99E582984088
:1000D2000CF582EE9BFEED9AFDEC99FC0FD5F0D665
:1000E200E4CEFBE4CDFAE4CCF9A88222B800C1B98F
:1000F2000059BA002DEC8BF084CFCECDFCE5F0CBCD
:10010200F97818EF2FFFEE33FEED33FDEC33FCEB05
:1001120033FB10D703994004EB99FB0FD8E5E4F9C0
:10012200FA227818EF2FFFEE33FEED33FDEC33FCAD
:10013200C933C910D7059BE99A4007EC9BFCE99AA1
:10014200F90FD8E0E4C9FAE4CCFB2275F010EF2FE6
:10015200FFEE33FEED33FDCC33CCC833C810D707E6
:100162009BEC9AE899400AED9BFDEC9AFCE899F821
:0E0172000FD5F0DAE4CDFBE4CCFAE4C8F922B4
:10018000EB9FF5F0EA9E42F0E99D42F0E89C45F0D5
:01019000224C
:10019100E8600FECC313FCED13FDEE13FEEF13FF4C
:0301A100D8F12270
:1001B0000205BBE493A3F8E493A34003F68001F2A5
:1001C00008DFF48029E493A3F85407240CC8C33350
:1001D000C4540F4420C8834004F456800146F6DF1F
:1001E000E4800B01020408102040809003D8E47ED4
:1001F000019360BCA3FF543F30E509541FFEE49314
:10020000A360010ECF54C025E060A840B8E493A3DA
:10021000FAE493A3F8E493A3C8C582C8CAC583CA05
:10022000F0A3C8C582C8CAC583CADFE9DEE780BEBD
:01041B0000E0
:00000001FF
