:0A0A9600120AA0D2A0120AA0C2A00A
:050AA000007F0BDFFEEA
:010AA500222E
:100A6300D2A0D2A1120AA0C2A1120AA0C2A0020A55
:010A7300A0E2
:100A7400C2A0C2A1120AA0D2A0120AA0D2A1020A44
:010A8400A0D1
:02098C00AE07B4
:10098E007D80ED60125E6004D2A18002C2A1120AC7
:10099E0096EDC313FD80EBD2A1120AA0D2A0120ACB
:0A09AE00A0A2A19200C2A0A200B313
:0109B800221C
:1009B900E4FED2A1120AA07D80ED6013D2A0120A32
:1009C900A030A1024EFE120A9BEDC313FD80EAC2BC
:0609D900A1120A96AF0610
:0109DF0022F5
:1009E000E4FED2A1120AA07D80ED6013D2A0120A0B
:1009F000A030A1024EFE120A9BEDC313FD80EAD285
:060A0000A1120A96AF06E8
:010A060022CD
:1007100044003C01010101440038313233344400CB
:0C07200030FFFFFFFF4400340101010125
:1007EF00900030E025E0FFA2B0E4334FF0A3E02506
:1007FF00E0FFA2B1E4334FF0A3E025E0FFA2B2E4A3
:10080F00334FF0A3E025E0FFA2B3E4334FF0E4FF52
:10081F0074302FF582E43400F583E0FEB4FF0F74DB
:10082F003C2FF582E43400F5837401F0800FEE70F5
:10083F000C743C2FF582E43400F583E4F00FEFB431
:02084F0004CED5
:010851002284
:10078B00E4900041F0900041E0C394045055E0FF29
:10079B002434F582E43400F583E0FE743C2FF582BB
:1007AB00E43400F583E06E6032EEB4011290004148
:1007BB00E02438F582E43400F583E0FF120A079059
:1007CB000041E0FF243CF582E43400F583E0FE7445
:1007DB00342FF582E43400F583EEF0900041E00411
:0307EB00F080A2F9
:0107EE0022E8
:10072C00500001C0F9A4B0999282F880908883C6D9
:10073C00A1868E480011FFFFFFFFFFFFFFFF410066
:02074C000000AB
:1008AC00E5A0541F44E0F5A07580FF53A01FE5A000
:1008BC00541F44C0F5A0900000E0FF7480A8070806
:1008CC008002C313D8FCF58053A01FE5A0541F442D
:1008DC00E0F5A074112FF582E43400F583E0F58087
:0D08EC0053A01F900000E004F0E05407F05E
:0108F90022DC
:06021E009000411201B442
:10022400E490004DF0E47B0AFAF9F8900041E0FC18
:10023400A3E0FDA3E0FEA3E0FF1200FE90004DE06A
:10024400FD3395E0FC74452DF58274003CF583EB99
:10025400F0900041E0FCA3E0FDA3E0FEA3E0FFE496
:100264007B0AFAF9F81200FE9000411201B49000E2
:100274004DE004F0E0B408AD90004D7407F0900038
:100284004DE0FFD3648094804027EF3395E0FE7403
:10029400452FF58274003EF583E0701574112FF537
:1002A4008274003EF58374FFF090004DE014F080FA
:1002B400CD90004DE0C3648094804036E0FFFD3370
:1002C40095E0FC74452DF58274003CF583E024012F
:1002D400F582E43400F583E0FEEF3395E0FC74111D
:1002E4002DF58274003CF583EEF090004DE014F09F
:0202F40080BFC9
:0102F60022E5
:10074E004100210042002400004400260000000069
:10075E0044002B0000000041001D0041002A004112
:10076E0000230041002F00410020004100220041E3
:0C077E0000190041001A0042001B00009E
:1002F700120A2E7F017E001204DE120A85D2AF1287
:10030700078B900020E0707B900023E0701990002D
:100317001DE060EBE4F012056E90001874FFF01218
:10032700044B120A4B80D8900023E0B401D190000F
:1003370022E06005E4F0120687900021E060C0E447
:10034700F0900026E0FCA3E0FDA3E0FEA3E0FF9011
:10035700002B1201B490002BE0FCA3E0FDA3E0FE0C
:10036700A3E0FF12021E900018E0FF900010E0FECD
:10037700EF5E900018F09000261201C00000000008
:10038700020306E4900040F0900040E0FFC39408A9
:10039700400302030674112FF582E43400F58374D9
:0A03A700FFF0900040E004F080DE5B
:100A2E00E5A0541F4480F5A07580FF53A01FE5A0DC
:0D0A3E00541F44A0F5A07580AF53A01F22E7
:100A8500758CFF758AFF5389F0438904D2A9D28CEE
:010A9500223E
:0404DE00AB07AA06B8
:1004E2009000411201C0000F4240AE02AF03E4FC93
:1004F200FD900041E0F8A3E0F9A3E0FAA3E0FB12CB
:100502000073E47BE87A03F9F81200FE90004112CE
:1005120001B4900041E0F8A3E0F9A3E0FAA3E0FB04
:10052200C3E49BFFE49AFE740199FDE498FC9000F9
:10053200411201B4900041E0FCA3E0FDA3E0FEA360
:10054200E0FF78081201A190001EEFF0900041A395
:10055200A3A3E090001FF053890F43891090001E5F
:0B056200E0F58DA3E0F58BD2ABD28E4C
:01056D00226B
:03001B000203B12C
:1003B100C0E0C0F0C083C082C0D075D000C000C012
:0D03C10001C002C003C004C005C006C00793
:1003CE0090001EE0F58DA3E0F58B1208AC1207EF3E
:1003DE0090001CE004F0700690001BE004F090000A
:1003EE001AE004F0E0C394C84007E4F09000220441
:1003FE00F0C390001CE094E890001BE094034009C9
:10040E00E4F0A3F090002104F0900023E07013902C
:10041E000019E004F0E0C394C84007E4F090001D1A
:02042E0004F0D8
:10043000D007D006D005D004D003D002D001D00020
:0B044000D0D0D082D083D0F0D0E032CA
:03000B000208FAEE
:1008FA00C0E0C0F0C083C082C0D075D000C000C0C4
:10090A0004C005C006C007900026E0FCA3E0FDA3D2
:10091A00E0FEA3E02401FFE43EFEE43DFDE43CFCEE
:10092A009000261201B4D007D006D005D004D0001A
:0B093A00D0D0D082D083D0F0D0E032CB
:100A0700EFB434059000238019EFB4330590002A22
:100A17008010EFB4320590002F8007EFB4310790B4
:070A27000020E06401F02251
:10044B007F03120852900024EEF0A3EFF07F0674A6
:10045B00112FF582E43400F58374FFF01FEFB40223
:10046B00EE900018E054C1F0900024E0FAA3E0FBFA
:10047B007C007D0AFFAE0212001E74012DF5827402
:10048B00003CF583E0900011F07C007D0AAF03AED9
:10049B000212001E7C007D0A12001E74012DF582D3
:1004AB0074003CF583E0900012F0900024E0FEA372
:1004BB00E0FF7C007D6412001E7C007D0A12001E92
:1004CB0074012DF58274003CF583E0900013F05419
:0204DB007FF0B0
:0104DD0022FC
:100A4B007FC87E0090002AE070028008900024E0AE
:070A5B00FEA3E0FF120945B4
:010A62002271
:05085200900041EFF0F1
:10085700120A637F9012098C4007120A74E4FEFFA4
:1008670022900041E04480FF12098C120A637F91B5
:1008770012098C1209B91209E0900042E4F0A3EFC3
:10088700F0120A74900042E0FEA3E0FF7C017DF4C1
:100897001201F1E47BFFFAF9F81200FE900042EE34
:0408A700F0A3EFF0DB
:0108AB00222A
:10094500900041EEF0A3EFF0900041E0FEA3E0FF40
:100955007C007DFF1201F1E47BF47A01F9F81200C5
:10096500FE900041EEF0A3EFF0120A637F901209AA
:100975008C4002800E7F4012098C900041A3E0FF5D
:0709850012098C120A742212
:10056E0090002FE07078900024E0FEA3E0FFC3948B
:10057E0096EE9400500890002AE070358026C3EF66
:10058E0094FAEE9400500890002AE070448035C32F
:10059E00900025E0945E900024E09401502090009D
:1005AE002AE0700DE5A0541F4480F5A07580FE80F2
:1005BE0038E5A0541F4480F5A07580EE802B900086
:1005CE002AE0700DE5A0541F4480F5A07580FA80D6
:1005DE0018E5A0541F4480F5A07580EA800BE5A0B5
:0D05EE00541F4480F5A07580FF53A01F220C
:1006870090002FE070747FE87E03FDFC90002BE064
:10069700F8A3E0F9A3E0FAA3E0FBC3120190500826
:1006A700E5A0541F44808044E47F887E13FDFC90BE
:1006B700002BE0F8A3E0F9A3E0FAA3E0FBC31201E3
:1006C700905008E5A0541F44808028E47F107E27BF
:1006D700FDFC90002BE0F8A3E0F9A3E0FAA3E0FB10
:1006E700C3120190E5A0541F44805007F5A0758000
:1006F700FD8012F5A07580F5800BE5A0541F44809E
:09070700F5A07580FF53A01F222C
:030000000205FBFB
:0C05FB00787FE4F6D8FD758120020642EE
:10001E00BC000BBE0029EF8DF084FFADF022E4CCC6
:10002E00F875F008EF2FFFEE33FEEC33FCEE9DEC8F
:10003E00984005FCEE9DFE0FD5F0E9E4CEFD22EDD5
:10004E00F8F5F0EE8420D21CFEADF075F008EF2F1F
:10005E00FFED33FD4007985006D5F0F222C398FD10
:05006E000FD5F0EA22AD
:10007300E88FF0A4CC8BF0A42CFCE98EF0A42CFC2C
:100083008AF0EDA42CFCEA8EF0A4CDA8F08BF0A4AA
:100093002DCC3825F0FDE98FF0A42CCD35F0FCEB09
:1000A3008EF0A4FEA9F0EB8FF0A4CFC5F02ECD39CE
:0F00B300FEE43CFCEAA42DCE35F0FDE43CFC223B
:1000C20075F008758200EF2FFFEE33FECD33CDCCF5
:1000D20033CCC58233C5829BED9AEC99E582984078
:1000E2000CF582EE9BFEED9AFDEC99FC0FD5F0D655
:1000F200E4CEFBE4CDFAE4CCF9A88222B800C1B97F
:100102000059BA002DEC8BF084CFCECDFCE5F0CBBC
:10011200F97818EF2FFFEE33FEED33FDEC33FCEBF5
:1001220033FB10D703994004EB99FB0FD8E5E4F9B0
:10013200FA227818EF2FFFEE33FEED33FDEC33FC9D
:10014200C933C910D7059BE99A4007EC9BFCE99A91
:10015200F90FD8E0E4C9FAE4CCFB2275F010EF2FD6
:10016200FFEE33FEED33FDCC33CCC833C810D707D6
:100172009BEC9AE899400AED9BFDEC9AFCE899F811
:0E0182000FD5F0DAE4CDFBE4CCFAE4C8F922A4
:10019000EB9FF5F0EA9E42F0E99D42F0E89C45F0C5
:0101A000223C
:1001A100E8600FECC313FCED13FDEE13FEEF13FF3C
:0301B100D8F12260
:0C01B400ECF0A3EDF0A3EEF0A3EFF022BE
:1001C000A8828583F0D083D0821201D71201D71282
:1001D00001D71201D7E473E493A3C583C5F0C583A7
:1001E000C8C582C8F0A3C583C5F0C583C8C582C889
:0101F00022EC
:1001F100EC8EF0A4CCC5F0CCCDF8EFA4CEC5F02D9B
:10020100FDE43CFCE8A42EC8C5F03DFDE43CFCEF58
:0D021100A4FFE5F028FEE43DFDE43CFC22E6
:100607000202F7E493A3F8E493A34003F68001F210
:1006170008DFF48029E493A3F85407240CC8C333F4
:10062700C4540F4420C8834004F456800146F6DFC3
:10063700E4800B0102040810204080900710E47E3C
:10064700019360BCA3FF543F30E509541FFEE493B8
:10065700A360010ECF54C025E060A840B8E493A37F
:10066700FAE493A3F8E493A3C8C582C8CAC583CAAA
:10067700F0A3C8C582C8CAC583CADFE9DEE780BE62
:01078A00006E
:00000001FF
