:05010100C180010801AE
:0800F9001200EA12008F80FBE7
:0F00EA00E5A0541F44A0F5A05380AF53A01F22E0
:10008F00E5A0541F4480F5A0E508F4F58030000D7D
:10009F00E50825E0F508B4800FC200800BE508C322
:1000AF0013F508B40102D200900000AF82AE83E4D2
:1000BF00FCFD7B507AC3F9F8D31200D4400653A04D
:0400CF001FA380E704
:0100D300220A
:03000000020003F8
:0C000300787FE4F6D8FD75812002004AE9
:1000D400EB9FF5F0EA9E42F0E99D42F0EC6480C8A3
:0600E40064809845F02243
:10000F000200F9E493A3F8E493A34003F68001F20E
:10001F0008DFF48029E493A3F85407240CC8C333F2
:10002F00C4540F4420C8834004F456800146F6DFC1
:10003F00E4800B0102040810204080900101E47E4F
:10004F00019360BCA3FF543F30E509541FFEE493B6
:10005F00A360010ECF54C025E060A840B8E493A37D
:10006F00FAE493A3F8E493A3C8C582C8CAC583CAA8
:10007F00F0A3C8C582C8CAC583CADFE9DEE780BE60
:0101060000F8
:00000001FF
