:03000000020748AC
:0C074800787FE4F6D8FD75812002078F51
:0B0F2A000000000000000000DFF622C5
:100E2D00C2AFC2947FFA120F2A7FFA120F2AD29400
:100E3D007F3C120F2AA29492013094FDD2AFA201F1
:010E4D00B3F1
:010E4E002281
:020D8F00AE07AD
:100D9100C2AF7D01ED601DC2947F02120F2A5E6019
:100DA10004D2948002C2947F3C120F2AD294ED2582
:060DB100E0FD80E0D2AF7E
:010DB7002219
:100D3800E4FEC2AF7D01ED601EC2947F02120F2A4D
:100D4800D2947F02120F2A3094024EFE7F3C120F7B
:0B0D58002AED25E0FD80DFD2AFAF06E2
:010D6300226D
:100EBC00120E2D920030000A7FCC120D8F7F44123F
:050ECC000D8FA200B330
:010ED10022FE
:100D6400120E2D920230021F7FCC120D8F7FBE1205
:100D74000D8F120D38AC07120D38EF540FFFAD0470
:0A0D8400EDCF8FF012024AA202B375
:010D8E002242
:0800030000000000102030078E
:100E4F00D2A37E01EE60135F6004D2A38002C2A31F
:0C0E5F00D297C297EE25E0FE80EAD2A3F5
:010E6B002264
:100EA500E4FF7E01EE600F30A3024FFFD297C29799
:060EB500EE25E0FE80EED8
:010EBB002214
:100ED200D293EF25E04480FF120E4FAF05120E4F62
:030EE200C2932296
:100EE500D293EF25E04481FF120E4F120EA5C29357
:020EF500C2A396
:010EF70022D8
:0B0C740090006AEBF0A3EAF0A3E9F0A7
:100C7F00D2937FBE120E4FE4FD90006AE0FBA3E417
:100C8F0075F001120209A9F0FA120104FF120E4FBA
:070C9F000DEDB407E4C29360
:010CA600222B
:0B0C3F00900065EBF0A3EAF0A3E9F0E1
:100C4A00D2937FBF120E4FE4FD120EA5900065E00D
:100C5A00FBA3E0FAA3E0F98D82758300EF12015C31
:090C6A000DEDB407E4C293C2A32E
:010C7300225E
:100A8E00E4900069F012021F900068F090000212CC
:100A9E00011D900066F090000312011D900065F09C
:100AAE0090000412011D900064F090000512011DCB
:100ABE00900063F090000612011D900062F090000D
:100ACE000712011D900067F07B017A007962020C1B
:010ADE0074A3
:0B08D90090005AEBF0A3EAF0A3E9F056
:1008E4007B017A00795D120C3F900063E02400FFE5
:1008F400E43420F990005AE0FBA3E0FAA3E0C98FA6
:10090400F012024A900061E0FF90005AE0FBA3E07D
:10091400FAA3E0F9900002EF12015C900060E0900D
:10092400000312015C90005FE090000412015C90EF
:10093400005EE090000512015C90005DE09000060E
:0D09440012015C900062E090000702015C6F
:100DB800785A7C007D017BFF7A0079037E007F08EA
:100DC8001200DEC293C297E4FD7F07120ED27B01A8
:070DD8007A00795A020A8E2D
:100A290090005CEBF0A3EAF0A3E9F0A3EDF09000ED
:100A390060E0D39400404D120EF87FA0120D0B40D8
:100A490005120F0980F190005FE0FF120D0B900075
:100A590060E0D3940040D790005CE0FBA3E475F01C
:100A690001120209A9F0FA120104FF120D0B9000FC
:100A790060E014F090005FE004F0E0547F60AF1292
:050A89000F0980CA22E4
:1009BF0090005AEBF0A3EAF0A3E9F0A3EDF0120ECA
:1009CF00F87FA0120D0B4005120F0980F190005D0A
:1009DF00E0FF120D0B120EF87FA1120D0B90005EAF
:1009EF00E0D39401401F120DDF90005AE0FBA3E407
:1009FF0075F001120209A9F0FAEF12014A90005E98
:100A0F00E014F080D8120E0690005AE0FBA3E0FA33
:0A0A1F00A3E0F9EF12014A020F09EB
:0A0F1A00120F24D2A0120F24C2A06F
:050F2400007F0BDFFE61
:010F290022A5
:100EF800D2A0D2A1120F24C2A1120F24C2A0020FA5
:010F080024C4
:100F0900C2A0C2A1120F24D2A0120F24D2A1020F93
:010F190024B3
:020D0B00AE0731
:100D0D007D80ED60125E6004D2A18002C2A1120F3F
:100D1D001AEDC313FD80EBD2A1120F24D2A0120F36
:0A0D2D0024A2A19200C2A0A200B30C
:010D37002299
:100DDF00E4FED2A1120F247D80ED6013D2A0120F7A
:100DEF002430A1024EFE120F1FEDC313FD80EAC285
:060DFF00A1120F1AAF065D
:010E050022CA
:100E0600E4FED2A1120F247D80ED6013D2A0120F52
:100E16002430A1024EFE120F1FEDC313FD80EAD24D
:060E2600A1120F1AAF0635
:010E2C0022A3
:100859005000310101010101010101010101010101
:100869000101015000213132333034353630373807
:10087900393030303030500000FFFFFFFFFFFFFFFD
:10088900FFFFFFFFFFFFFFFFFF41001000500011B6
:10089900010101010101010101010101010101013F
:1003D600900010E0FF25E025E02400F582E43400DB
:1003E600F583E025E0FEA2C4E4334EFEEF25E025CA
:1003F600E02400F582E43400F583EEF0900010E08E
:10040600FF25E025E02401F582E43400F583E025AC
:10041600E0FEA2C2E4334EFEEF25E025E02401F51E
:1004260082E43400F583EEF0900010E0FF25E0252D
:10043600E02402F582E43400F583E025E0FEA2B56F
:10044600E4334EFEEF25E025E02402F582E4340095
:10045600F583EEF0900010E0FF25E025E02403F59B
:1004660082E43400F583E025E0FEA2B4E4334EFED8
:10047600EF25E025E02403F582E43400F583EEF071
:10048600E4FF900010E0FE25E025E02400F582E47C
:100496003400F583E5822FF582E43583F583E0FDAC
:1004A600B4FF1DEE25E025E02431F582E43400F5A5
:1004B60083E5822FF582E43583F5837401F0801D90
:1004C600ED701AEE25E025E02431F582E43400F5DE
:1004D60083E5822FF582E43583F583E4F00FEFB4EC
:1004E60004A0900010E004F0E05403F014600F1430
:1004F600601114601324037013C2B0D2B322C2B1C8
:0C050600D2B022C2B2D2B122C2B3D2B233
:0105120022C6
:1005EC00E490005AF0E490005BF090005BE0C39460
:1005FC000440030206A8E0FF90005AE0FE25E02527
:10060C00E02411F582E43400F583E5822FF582E4D1
:10061C003583F583E0FDEE25E025E02431F582E419
:10062C003400F583E5822FF582E43583F583E06DA4
:10063C006061EDB4012090005AE025E025E0242112
:10064C00F582E43400F583E5822FF582E43583F5F9
:10065C0083E0FF120E8990005BE0FF90005AE0FEF1
:10066C0025E025E02431F582E43400F583E5822F82
:10067C00F582E43583F583E0FDEE25E025E02411D9
:10068C00F582E43400F583E5822FF582E43583F5B9
:10069C0083EDF090005BE004F00205F690005AE068
:0B06AC0004F0E0C3940450030205F1C9
:0106B7002220
:1008A900500042C0F9A4B0999282F880908883C61A
:1008B900A1868E480052FFFFFFFFFFFFFFFF4100A7
:0208C9004100EC
:100ADF00E5A0541F44E0F5A07580FF53A01FE5A0CB
:100AEF00541F44C0F5A0900041E0FF7480A8070890
:100AFF008002C313D8FCF58053A01FE5A0541F44F8
:100B0F00E0F5A074522FF582E43400F583E0F58010
:0D0B1F0053A01F900041E004F0E05407F0E7
:010B2C0022A6
:0605130090007B12039929
:10051900E4900087F0E47B0AFAF9F890007BE0FCAC
:10052900A3E0FDA3E0FEA3E0FF1202F4900087E040
:10053900FD3395E0FC747F2DF58274003CF583EB67
:10054900F090007BE0FCA3E0FDA3E0FEA3E0FFE464
:100559007B0AFAF9F81202F490007B1203999000D1
:1005690087E004F0E0B408AD9000877407F09000CC
:1005790087E0FFD3648094804027EF3395E0FE74D1
:100589007F2FF58274003EF583E0701574522FF5C4
:100599008274003EF58374FFF0900087E014F080C8
:1005A900CD900087E0C3648094804036E0FFFD333E
:1005B90095E0FC747F2DF58274003CF583E02442BC
:1005C900F582E43400F583E0FEEF3395E0FC7452E4
:1005D9002DF58274003CF583EEF0900087E014F06D
:0205E90080BFD1
:0105EB0022ED
:0D08CB0041007A0041006F0042006D000006
:100CA7007B017A00797A90005E7401F0E4FD120905
:100CB700BFD2AF120E6C7F017E001206B8120EBCB7
:100CC700120DB81205EC90006FE060F7E4F0120B1C
:030CD700C280F0E8
:100E6C00E5A0541F4480F5A07580FF53A01FE5A09A
:0D0E7C00541F44A0F5A07580AF53A01F22A5
:0406B800AB07AA06DC
:1006BC0090005A1203A5000E1000AE02AF03E4FC2A
:1006CC00FD90005AE0F8A3E0F9A3E0FAA3E0FB12D6
:1006DC000269E47BE87A03F9F81202F490005A12EA
:1006EC00039990005AE0F8A3E0F9A3E0FAA3E0FB29
:1006FC00C3E49BFFE49AFE740199FDE498FC90001E
:10070C005A12039990005AE0FCA3E0FDA3E0FEA36B
:10071C00E0FF7808120386900070EFF090005AA367
:10072C00A3A3E0900071F05389F04389019000700D
:0B073C00E0F58CA3E0F58AD2A9D28C76
:01074700228F
:03000B0002095196
:10095100C0E0C0F0C083C082C0D075D000C000C06C
:0D09610001C002C003C004C005C006C007ED
:10096E00900070E0F58CA3E0F58A120ADF1203D630
:10097E0090006EE004F0700690006DE004F0C390FD
:10098E00006EE094C890006DE0648094804007E4AF
:06099E00F0A3F0A304F039
:1009A400D007D006D005D004D003D002D001D000A7
:0B09B400D0D0D082D083D0F0D0E03251
:100E8900EFB4311790007AE004F07B017A00797AA7
:0C0E99009000607401F0E4FD120A2922B0
:100B2D007F03120B787E0774522EF582E43400F5A4
:100B3D008374FFF01EEEB401EEEF75F00A8474427B
:100B4D0025F0F582E43400F583E0900052F0EF7566
:100B5D00F00A8475F00A84744225F0F582E43400BD
:0A0B6D00F583E0900053F0547FF090
:010B7700225B
:1007D400120EBC7B017A007988120D64900088E0C7
:1007E400FEA3E07804CEA2E713CE13D8F8F0EE907F
:1007F4000088F0120EBC7F0774522FF582E4340097
:10080400F58374FFF01FEFB402EE90004EE0900009
:1008140052F0900088E0FAA3E0FB7C007D0AFFAE72
:10082400021201D374422DF58274003CF583E090EA
:100834000053F07C007D0AAF03AE021201D37C00AA
:100844007D0A1201D374422DF58274003CF583E0D5
:04085400900054F0CC
:01085800227D
:0B0C0900E0540FFD1F120C147DBF1FF4
:100C1400EDB4BF0E74522FF582E43400F58374BF33
:100C2400F02274422DF582E43400F583E0FE745220
:0B0C34002FF582E43400F583EEF0227F
:100BC2007B017A0079721208D9900076E0C4540F42
:100BD200FD7F07120C14900076120C09900077E04A
:100BE200C4540FFD7F04120C14900077120C09906C
:100BF2000078E0C4540FFD7F01120C14900078E0DD
:070C0200540FFD1F020C144A
:050B780090008AEFF07F
:100B7D00120EF87F90120D0B4006120F097F002206
:100B8D0090008AE04480FF120D0B120EF87F911237
:100B9D000D0B120DDF120E0690008BEFF0120F09E8
:100BAD0090008BE075F032A4FFAEF07C007DFF125B
:040BBD00017EEFF0D6
:010BC1002211
:100CDA0090008CEFF0120EF87F90120D0B400280FC
:100CEA001C7F40120D0B90008CE075F0FFA4FFAE44
:100CFA00F07C007D3212017EEFF0120D0B120F090B
:010D0A0022C6
:10075400020CA7E493A3F8E493A34003F68001F208
:1007640008DFF48029E493A3F85407240CC8C333A6
:10077400C4540F4420C8834004F456800146F6DF75
:10078400E4800B0102040810204080900859E47EA4
:10079400019360BCA3FF543F30E509541FFEE4936A
:1007A400A360010ECF54C025E060A840B8E493A331
:1007B400FAE493A3F8E493A3C8C582C8CAC583CA5C
:1007C400F0A3C8C582C8CAC583CADFE9DEE780BE14
:0108D800001F
:10000E00E709F608DFFA8046E709F208DFFA803ED4
:10001E0088828C83E709F0A3DFFA8032E309F608C1
:10002E00DFFA8078E309F208DFFA807088828C8329
:10003E00E309F0A3DFFA806489828A83E0A3F608DD
:10004E00DFFA805889828A83E0A3F208DFFA804CB7
:10005E0080D280FA80C680D4806980F2803380108E
:10006E0080A680EA809A80A880DA80E280CA8033F7
:10007E0089828A83ECFAE493A3C8C582C8CCC5836F
:10008E00CCF0A3C8C582C8CCC583CCDFE9DEE7803F
:10009E000D89828A83E493A3F608DFF9ECFAA9F0BE
:1000AE00EDFB2289828A83ECFAE0A3C8C582C8CC14
:1000BE00C583CCF0A3C8C582C8CCC583CCDFEADE2D
:1000CE00E880DB89828A83E493A3F208DFF980CC8F
:1000DE0088F0EF60010E4E60C388F0ED2402B40488
:1000EE000050B9F582EB2402B4040050AF2323452F
:0600FE00822390005E73F6
:10010400BB010689828A83E0225002E722BBFE02F9
:09011400E32289828A83E493222C
:10011D00BB010CE58229F582E5833AF583E0225097
:10012D0006E92582F8E622BBFE06E92582F8E222E1
:0D013D00E58229F582E5833AF583E49322FB
:10014A00BB010689828A83F0225002F722BBFE0194
:02015A00F3228E
:10015C00F8BB010DE58229F582E5833AF583E8F0D9
:10016C00225006E92582C8F622BBFE05E92582C885
:02017C00F2226D
:10017E00BC000BBE0029EF8DF084FFADF022E4CC65
:10018E00F875F008EF2FFFEE33FEEC33FCEE9DEC2E
:10019E00984005FCEE9DFE0FD5F0E9E4CEFD22ED74
:1001AE00F8F5F0EE8420D21CFEADF075F008EF2FBE
:1001BE00FFED33FD4007985006D5F0F222C398FDAF
:0501CE000FD5F0EA224C
:1001D300C2D5EC30E709B2D5E4C39DFDE49CFCEE47
:1001E30030E715B2D5E4C39FFFE49EFE12017EC340
:1001F300E49DFDE49CFC800312017E30D507C3E43B
:060203009FFFE49EFE22B5
:10020900A3F8E0C5F025F0F0E582158270021583A8
:06021900E0C838F0E82205
:10021F00BB010A89828A83E0F5F0A3E022500687AA
:10022F00F009E71922BBFE07E3F5F009E31922896C
:0B023F00828A83E493F5F0740193229F
:10024A00BB010A89828A83F0E5F0A3F0225006F7FF
:0F025A0009A7F01922BBFE06F3E5F009F31922FC
:10026900E88FF0A4CC8BF0A42CFCE98EF0A42CFC34
:100279008AF0EDA42CFCEA8EF0A4CDA8F08BF0A4B2
:100289002DCC3825F0FDE98FF0A42CCD35F0FCEB11
:100299008EF0A4FEA9F0EB8FF0A4CFC5F02ECD39D6
:0F02A900FEE43CFCEAA42DCE35F0FDE43CFC2243
:1002B80075F008758200EF2FFFEE33FECD33CDCCFD
:1002C80033CCC58233C5829BED9AEC99E582984080
:1002D8000CF582EE9BFEED9AFDEC99FC0FD5F0D65D
:1002E800E4CEFBE4CDFAE4CCF9A88222B800C1B987
:1002F8000059BA002DEC8BF084CFCECDFCE5F0CBC5
:10030800F97818EF2FFFEE33FEED33FDEC33FCEBFD
:1003180033FB10D703994004EB99FB0FD8E5E4F9B8
:10032800FA227818EF2FFFEE33FEED33FDEC33FCA5
:10033800C933C910D7059BE99A4007EC9BFCE99A99
:10034800F90FD8E0E4C9FAE4CCFB2275F010EF2FDE
:10035800FFEE33FEED33FDCC33CCC833C810D707DE
:100368009BEC9AE899400AED9BFDEC9AFCE899F819
:0E0378000FD5F0DAE4CDFBE4CCFAE4C8F922AC
:10038600E8600FECC313FCED13FDEE13FEEF13FF55
:03039600D8F12279
:0C039900ECF0A3EDF0A3EEF0A3EFF022D7
:1003A500A8828583F0D083D0821203BC1203BC12CD
:1003B50003BC1203BCE473E493A3C583C5F0C583F2
:1003C500C8C582C8F0A3C583C5F0C583C8C582C8A2
:0103D5002205
:00000001FF
