:08000300001803012359500409
:100E3F00D2A37E01EE60135F7004C2A38002D2A31F
:0C0E4F00D297C297EE25E0FE80EAD2A305
:010E5B002274
:100E7900E4FF7E01EE600F30A3024FFFD297C297C5
:060E8900EE25E0FE80EE04
:010E8F002240
:100EA600D293EF25E04480FF120E3FAF05120E3FAE
:030EB600C29322C2
:100EB900D293EF25E04481FF120E3F120E79C293BF
:020EC900C2A3C2
:010ECB002204
:0B0D1A00900041EBF0A3EAF0A3E9F029
:100D2500D2937FBE120E3FE4FD900041E0FBA3E4A9
:100D350075F0011201D5A9F0FA120104FF120E3F58
:070D45000DEDB407E4C293B9
:010D4C002284
:0B0CB00090003CEBF0A3EAF0A3E9F099
:100CBB00D2937FBF120E3FE4FD120E7990003CE001
:100CCB00FBA3E0FAA3E0F98D82758300EF12017D9F
:090CDB000DEDB407E4C293C2A3BD
:010CE40022ED
:0B09E000900031EBF0A3EAF0A3E9F077
:1009EB007B017A007934120CB090003AE02400FFBE
:1009FB00E43420F9900031E0FBA3E0FAA3E0C98FC7
:100A0B00F0120216900038E0FF900031E0FBA3E0FB
:100A1B00FAA3E0F9900002EF12017D900037E0900D
:100A2B00000312017D900036E090000412017D90CE
:100A3B000035E090000512017D900034E090000637
:0D0A4B0012017D900039E090000702017D4E
:100B4300E4900040F01201EB90003FF0900002129D
:100B5300011D90003DF090000312011D90003CF038
:100B630090000412011D90003BF090000512011D3E
:100B730090003AF090000612011D900039F09000A9
:100B83000712011D90003EF07B017A007939020DB6
:010B93001A47
:100DD40078317C007D017BFF7A0079037E007F08F7
:100DE4001200DEC293C297E4FD7F07120EA67B01B8
:070DF4007A007931020B4384
:1008E600500001C0F9A4B0999282F880908883C61E
:1008F600A1868E480011FFFFFFFFFFFFFFFF4100AB
:020906000000EF
:100B9400E5A0541F44E0F5A07580FF53A01FE5A015
:100BA400541F44C0F5A0900000E0FF7480A807081B
:100BB4008002C313D8FCF58053A01FE5A0541F4442
:100BC400E0F5A074112FF582E43400F583E0F5809C
:0D0BD40053A01F900000E004F0E05407F073
:010BE10022F1
:100908004100510041004A004100520141004F009E
:1009180041004B0741004E00410053004100500088
:0F09280042004400004200460000420048000028
:10073500120E5CD2AF7F021207CD120DD4120E90AD
:100745007B017A0079541209E0120AD090004AE040
:10075500B401F6E4F090004FE0705B900060E0FFBC
:10076500900058E0B5071D900061E0FF900059E04A
:10077500B50711900062E0FF90005AE0B50705E467
:10078500900052F0900051E0700E7B017A00795490
:100795001209E0120BE28003120A58900052E07031
:1007A50005120DFB80A3E5A0541F4480F5A07580BC
:1007B500FF53A01F809390004FE0B40105120C2E4B
:0807C5008087120CE502074ECB
:0D0C780012011D540FFD1F120C857DBF1FC2
:100C8500EDB4BF0E74112FF582E43400F58374BF03
:100C9500F02274012DF582E43400F583E0FE741131
:0B0CA5002FF582E43400F583EEF0220E
:060BE2007B017A0079544A
:100BE80090000412011DC4540FFD7F07120C85905C
:100BF8000004120C7890000512011DC4540FFD7FEB
:100C080004120C85900005120C7890000612011D44
:100C1800C4540FFD7F01120C8590000612011D546B
:060C28000FFD1F020C8508
:100DFB00900050E0600DE5A0541F4480F5A0758075
:100E0B00FE800BE5A0541F4480F5A07580FF53A016
:020E1B001F2294
:100A58007F0774112FF582E43400F58374FFF01FCB
:100A6800EFB402EE7B017A007931120D7D120E90FF
:100A7800900031E0FEA3E07804CEA2E713CE13D8AD
:100A8800F8F0EE900031F0E0FAA3E0FB7C007D0A7C
:100A9800FFAE0212019F74012FF58274003EF583A8
:100AA800E0900013F07C007D0AAF03AE0212019FB4
:100AB80074012DF58274003CF583E0900012F090EB
:070AC800000DE0900011F0A9
:010ACF002204
:100E5C00E5A0541F4480F5A07580FF53A01FE5A0AA
:0D0E6C00541F44A0F5A07580AF53A01F22B5
:0207CD00AB0778
:1007CF00900031120371000E1000AF03E4FCFDFE28
:1007DF00900031E0F8A3E0F9A3E0FAA3E0FB1202E6
:1007EF0035E47BE87A03F9F81202C0900031120366
:1007FF0065900031E0F8A3E0F9A3E0FAA3E0FBC3B2
:10080F00E49BFFE49AFE740199FDE498FC9000319B
:10081F00120365900031E0FCA3E0FDA3E0FEA3E02E
:10082F00FF780812035290004CEFF0900031A3A311
:10083F00A3E090004DF05389F043890190004CE004
:0A084F00F58CA3E0F58AD2A9D28C43
:01085900227C
:1003F700900032EFF06431703F90004FE0FF7010D3
:10040700900052E0700304F02290004F7401804680
:10041700EF6401600302052190004BE024FDF0E04A
:10042700C36480948050087407F0E490004FF07B19
:10043700017A00795402051E900032E0FC643270A4
:100447004A90004FE0FF701B900052E0700304F0E9
:100457002290004F7402F0E490004EF090004B742D
:1004670007F022EF6402600302052190004BE024AD
:10047700FDF0E0C36480948050087407F0E49000B6
:100487004FF07B017A00795C02051EEC6433704102
:1004970090004FE0FF7008900052E0700204F0EF08
:1004A700B401157B017A0079541206967B017A0014
:1004B7007954120B43120BE290004FE06402705A1A
:1004C7007B017A00795C1206967B017A00795C8061
:1004D70046900032E06434704190004FE0FF7008AE
:1004E700900052E0700204F0EFB401157B017A002E
:1004F70079541205F47B017A007954120B43120BDD
:10050700E290004FE0B402127B017A00795C120599
:0B051700F47B017A00795C120BE822F3
:03000B00020522C9
:10052200C0E0C0F0C083C082C0D075D000C000C09F
:0D05320001C002C003C004C005C006C00720
:10053F0090004CE0F58CA3E0F58A900047E004F0C2
:10054F007006900046E004F0900045E004F070065D
:10055F00900044E004F0120B94120967C390004717
:10056F00E09464900046E094004010E4F0A3F09013
:10057F00004A04F0900050E06401F0900052E070E7
:10058F0028900049E004F07006900048E004F0C3A2
:10059F00900049E094C4900048E094094012E4F0C0
:1005AF00A3F090005204F08007900048E4F0A3F00D
:1005BF00C3900045E094F4900044E09401400BE4B4
:0A05CF00F0A3F0900053E06401F087
:1005D900D007D006D005D004D003D002D001D00076
:0B05E900D0D0D082D083D0F0D0E03220
:0B0ECC000000000000000000DFF62224
:100E1D00C2AFC2947FFA120ECC7FFA120ECCD294CE
:100E2D007F3C120ECCA29492013094FDD2AFA20160
:010E3D00B301
:010E3E002291
:020DAB00AE0791
:100DAD00C2AF7D01ED601DC2947F02120ECC5E704C
:100DBD0004C2948002D2947F3C120ECCD294ED25C5
:060DCD00E0FD80E0D2AF62
:010DD30022FD
:100D4D00E4FE7D01ED6024C2947F02120ECCD2949C
:100D5D007F02120ECC3094044EFE8004EDF45EFE44
:0F0D6D007F3C120ECCED25E0FD80D9D2AFAF0652
:010D7C002254
:100E9000120E1D920030000A7FCC120DAB7F44125F
:050EA0000DABA200B340
:010EA500222A
:100D7D00120E1D92003000227FCC120DAB7FBE12E1
:100D8D000DAB120D4DAC07120D4DEFFEAD047C00F9
:0D0D9D00E42DFFEC3E8FF0120216A200B311
:010DAA002226
:1009370048002900010001000100014800210031A1
:100947000032003300344400190101010144001D45
:04095700FFFFFFFFA0
:100AD000E4900031F0900031E0C394045064E0FFF2
:100AE0002419F582E43400F583E0FEFDEF25E024CF
:100AF00029F582E43400F583E0FAA3E06D7001EAA1
:100B00006038EEB40115900031E025E02421F58233
:100B1000E43400F583A3E0FF1203F7900031E0FF17
:100B200025E02429F582E43400F583A3E0FE74195E
:100B30002FF582E43400F583EEF0900031E004F00C
:020B40008093A0
:010B42002290
:1009670090001DE025E0FFA2B0E4334FF0A3E0259F
:10097700E0FFA2B1E4334FF0A3E025E0FFA2B2E429
:10098700334FF0A3E025E0FFA2B3E4334FF0E4FFD9
:10099700741D2FF582E43400F583E0701CEF25E029
:1009A7002429F582E43400F583E4F0A3F0EFB403DF
:1009B700229000517401F0801AEF25E02429F58276
:1009C700E43400F583E4F0A304F0EFB40305E49006
:0809D7000051F00FEFB404B869
:0109DF0022F5
:0B095B0048005C0000000000000000ED
:100C2E0090004EE0700F7B017A0079541209E0902B
:100C3E00004E7401F0900053E0B4012490004BE09C
:100C4E00FF3395E0FE74112FF58274003EF5837428
:100C5E00FFF074102FF58274003EF58374FFF022BE
:0A0C6E007B017A007954120BE82292
:100CE500900053E0B4012490004BE0FF3395E0FE03
:100CF50074112FF58274003EF58374FFF074102F84
:100D0500F58274003EF58374FFF0227B017A007949
:050D15005C120BE82256
:1006960090004BE0FF6407702F9000040412014A9B
:1006A60090000412011DFE540FFDBD0A0BEE54F01E
:1006B600241090000412017D90000412011DD394B1
:1006C60023406B9000048062EF6404702F90000555
:1006D6000412014A90000512011DFF540FFEBE0AC6
:1006E6000BEF54F0241090000512017D90000512C6
:1006F600011DD394594037900005802E9000067452
:100706000112014A90000612011DFF540FFEBE0A97
:100716000BEF54F0241090000612017D9000061293
:0F072600011DD394594007900006E412017D2273
:1005F40090004BE0FF6407703190000474FF120117
:100604004A90000412011DFE540FFDBD0F0BEE5461
:10061400F0240990000412017D90000412011D646D
:10062400F9706E90000474238064EF640470319058
:10063400000574FF12014A90000512011DFF540FBA
:10064400FEBE0F0BEF54F0240990000512017D90BB
:10065400000512011D64F970389000057459802E4C
:1006640090000674FF12014A90000612011DFF5407
:100674000FFEBE0F0BEF54F0240990000612017D0B
:1006840090000612011DB4F9089000067459120175
:020694007D22C5
:0300000002085A99
:0C085A00787FE4F6D8FD7581200208A12B
:10000E00E709F608DFFA8046E709F208DFFA803ED4
:10001E0088828C83E709F0A3DFFA8032E309F608C1
:10002E00DFFA8078E309F208DFFA807088828C8329
:10003E00E309F0A3DFFA806489828A83E0A3F608DD
:10004E00DFFA805889828A83E0A3F208DFFA804CB7
:10005E0080D280FA80C680D4806980F2803380108E
:10006E0080A680EA809A80A880DA80E280CA8033F7
:10007E0089828A83ECFAE493A3C8C582C8CCC5836F
:10008E00CCF0A3C8C582C8CCC583CCDFE9DEE7803F
:10009E000D89828A83E493A3F608DFF9ECFAA9F0BE
:1000AE00EDFB2289828A83ECFAE0A3C8C582C8CC14
:1000BE00C583CCF0A3C8C582C8CCC583CCDFEADE2D
:1000CE00E880DB89828A83E493A3F208DFF980CC8F
:1000DE0088F0EF60010E4E60C388F0ED2402B40488
:1000EE000050B9F582EB2402B4040050AF2323452F
:0600FE00822390005E73F6
:10010400BB010689828A83E0225002E722BBFE02F9
:09011400E32289828A83E493222C
:10011D00BB010CE58229F582E5833AF583E0225097
:10012D0006E92582F8E622BBFE06E92582F8E222E1
:0D013D00E58229F582E5833AF583E49322FB
:10014A00BB010FF8E58229F582E5833AF583E028B9
:10015A00F0225009C58229F8E58226F622BBFE095B
:10016A00C58229F8E22582F222F8EA2583F583E995
:03017A00932822A5
:10017D00F8BB010DE58229F582E5833AF583E8F0B8
:10018D00225006E92582C8F622BBFE05E92582C864
:02019D00F2224C
:10019F00C2D5EC30E709B2D5E4C39DFDE49CFCEE7B
:1001AF0030E715B2D5E4C39FFFE49EFE1203A2C34E
:1001BF00E49DFDE49CFC80031203A230D507C3E449
:0601CF009FFFE49EFE22EA
:1001D500A3F8E0C5F025F0F0E582158270021583DD
:0601E500E0C838F0E8223A
:1001EB00BB010A89828A83E0F5F0A3E022500687DF
:1001FB00F009E71922BBFE07E3F5F009E3192289A1
:0B020B00828A83E493F5F074019322D3
:10021600BB010A89828A83F0E5F0A3F0225006F733
:0F02260009A7F01922BBFE06F3E5F009F3192230
:10023500E88FF0A4CC8BF0A42CFCE98EF0A42CFC68
:100245008AF0EDA42CFCEA8EF0A4CDA8F08BF0A4E6
:100255002DCC3825F0FDE98FF0A42CCD35F0FCEB45
:100265008EF0A4FEA9F0EB8FF0A4CFC5F02ECD390A
:0F027500FEE43CFCEAA42DCE35F0FDE43CFC2277
:1002840075F008758200EF2FFFEE33FECD33CDCC31
:1002940033CCC58233C5829BED9AEC99E5829840B4
:1002A4000CF582EE9BFEED9AFDEC99FC0FD5F0D691
:1002B400E4CEFBE4CDFAE4CCF9A88222B800C1B9BB
:1002C4000059BA002DEC8BF084CFCECDFCE5F0CBF9
:1002D400F97818EF2FFFEE33FEED33FDEC33FCEB32
:1002E40033FB10D703994004EB99FB0FD8E5E4F9ED
:1002F400FA227818EF2FFFEE33FEED33FDEC33FCDA
:10030400C933C910D7059BE99A4007EC9BFCE99ACD
:10031400F90FD8E0E4C9FAE4CCFB2275F010EF2F12
:10032400FFEE33FEED33FDCC33CCC833C810D70712
:100334009BEC9AE899400AED9BFDEC9AFCE899F84D
:0E0344000FD5F0DAE4CDFBE4CCFAE4C8F922E0
:10035200E8600FECC313FCED13FDEE13FEEF13FF89
:03036200D8F122AD
:0C036500ECF0A3EDF0A3EEF0A3EFF0220B
:10037100A8828583F0D083D0821203881203881269
:100381000388120388E473E493A3C583C5F0C5838E
:10039100C8C582C8F0A3C583C5F0C583C8C582C8D6
:0103A1002239
:10086600020735E493A3F8E493A34003F68001F26C
:1008760008DFF48029E493A3F85407240CC8C33393
:10088600C4540F4420C8834004F456800146F6DF62
:10089600E4800B01020408102040809008E6E47E04
:1008A600019360BCA3FF543F30E509541FFEE49357
:1008B600A360010ECF54C025E060A840B8E493A31E
:1008C600FAE493A3F8E493A3C8C582C8CAC583CA49
:1008D600F0A3C8C582C8CAC583CADFE9DEE780BE01
:010966000090
:1003A200BC000BBE0029EF8DF084FFADF022E4CC3F
:1003B200F875F008EF2FFFEE33FEEC33FCEE9DEC08
:1003C200984005FCEE9DFE0FD5F0E9E4CEFD22ED4E
:1003D200F8F5F0EE8420D21CFEADF075F008EF2F98
:1003E200FFED33FD4007985006D5F0F222C398FD89
:0503F2000FD5F0EA2226
:00000001FF
