:100C930090003CEBF0A3EAF0A3E9F0A3EDF012100F
:100CA300367FA0120F59400512104780F190003F84
:100CB300E0FF120F591210367FA1120F5990004016
:100CC300E0D39401401F120F8490003CE0FBA3E4A7
:100CD30075F0011200B4A9F0FAEF1200379000404A
:100CE300E014F080D8120FAF90003CE0FBA3E0FAD1
:0A0CF300A3E0F9EF120037021047EA
:100CFD00900043EBF0A3EAF0A3E9F0A3EDF0900030
:100D0D0047E0D39400404E1210367FA0120F594089
:100D1D000512104780F1900046E0FF120F59900028
:100D2D0047E0D394004029900043E0FBA3E475F025
:100D3D00011200B4A9F0FA12001EFF120F59900013
:100D4D0046E004F0A3E014F0900046E0547070CE3D
:060D5D0012104780A922DC
:0A105800121062D2A0121062C2A0B2
:05106200007F0BDFFE22
:011067002266
:10103600D2A0D2A1121062C2A1121062C2A00210E6
:011046006247
:10104700C2A0C2A1121062D2A0121062D2A10210D5
:011057006236
:020F5900AE07E1
:100F5B007D80ED60125E7004C2A18002D2A11210DE
:100F6B0058EDC313FD80EBD2A1121062D2A0A2A147
:080F7B00920012105DA200B308
:010F8300224B
:100F8400D2A11210627D80ED6019D2A012106220ED
:100F9400A105F45EFE8003EE4DFE12105DEDC31359
:0A0FA400FD80E4C2A1121058AF0650
:010FAE002220
:100FAF00D2A11210627D80ED6019D2A012106220C2
:100FBF00A105F45EFE8003EE4DFE12105DEDC3132E
:0A0FCF00FD80E4D2A1121058AF0615
:010FD90022F5
:10084E0048007100010001000100014800690031FB
:10085E00003200330034440061010101014400659F
:04086E00FFFFFFFF8A
:100B4500E490003CF090003CE0C394045064E0FF66
:100B55002461F582E43400F583E0FEFDEF25E02411
:100B650071F582E43400F583E0FAA3E06D7001EAE3
:100B75006038EEB4011590003CE025E02469F5826B
:100B8500E43400F583A3E0FF12068790003CE0FF04
:100B950025E02471F582E43400F583A3E0FE746159
:100BA5002FF582E43400F583EEF090003CE004F08C
:020BB50080932B
:010BB700221B
:10090700900065E025E0FFA2B0E4334FF0A3E025B7
:10091700E0FFA2B1E4334FF0A3E025E0FFA2B2E489
:10092700334FF0A3E025E0FFA2B3E4334FF0E490A8
:100937000029F0900029E0FFC39404506B74652FE1
:10094700F582E43400F583E07033900029E025E078
:100957002471F582E43400F583E4F0A3F090006895
:10096700E0703D900027E07037900022E0FFE4FC44
:10097700FDFE12077590005A74BFF080239000297E
:10098700E0FF2465F582E43400F583E0B4FF11EF5E
:1009970025E02471F582E43400F583E4F0A304F044
:0809A700900029E004F0808BB0
:0109AF002225
:10087200500049C0F9A4B0999282F880908883C64A
:10088200A1868E480059FFFFFFFFFFFFFFFF4100D7
:0208920048001C
:100E6F00E5A0541F44E0F5A07580FF53A01FE5A037
:100E7F00541F44C0F5A0900048E0FF7480A80708F5
:100E8F008002C313D8FCF58053A01FE5A0541F4464
:100E9F00E0F5A074592FF582E43400F583E0F58076
:0D0EAF0053A01F900048E004F0E05407F04D
:010EBC002213
:0607750090002A1201FAB7
:10077B00E490002EF0E47B0AFAF9F890002AE0FCF2
:10078B00A3E0FDA3E0FEA3E0FF12015590002EE0D5
:10079B00FD3395E0FC742F2DF58274003CF583EB53
:1007AB00F090002AE0FCA3E0FDA3E0FEA3E0FFE451
:1007BB007B0AFAF9F812015590002A1201FA9000FF
:1007CB002EE004F0E0B408AD90002E7407F090001A
:1007DB002EE0FFD3648094804027EF3395E0FE74C6
:1007EB002F2FF58274003EF583E0701574592FF5A9
:1007FB008274003EF58374FFF090002EE014F080BD
:10080B00CD90002EE0C3648094804036E0FFFD3332
:10081B0095E0FC742F2DF58274003CF583E02449A0
:10082B00F582E43400F583E0FEEF3395E0FC745978
:10083B002DF58274003CF583EEF090002EE014F061
:02084B0080BF6C
:01084D002288
:050EBD0090003CEFF085
:100EC2001210367F90120F5940061210477F0022EF
:100ED20090003CE04440FF120F591210367F9112ED
:100EE2000F59120F84120FAF90003DEFF01210470E
:050EF20090003DE0FF4F
:010EF70022D8
:100EF800900079EFF0E075F0FFA4FFAEF07C007D84
:100F080032120049EFF01210367F90120F5940024A
:100F1800800D7F40120F59900079E0FF120F59128F
:030F28001047224D
:1008940041001E004100240042002500FF410012D7
:1008A40000410013004100140041001500410023E1
:1008B40000410027004100110148001601900190F9
:1008C40001900190410022004100280141002100D3
:1008D4004100000141000180410002014100030187
:1008E40042000400004200060000420008000042EA
:1008F400000A000042000C000041000E0042000FFC
:020904000000F1
:100598007B017A0079389000407404F0E4FD120C75
:1005A80093E4900037F0900037E0FD2438F582E4BA
:1005B8003400F583E075F00AA4FFED25E02416F574
:1005C80082E43400F583E5F0F0A3EFF0900037E023
:1005D80004F0E0B404D0D2AF1210037F027E001200
:1005E80009B0121020120B4590001EE0600AE4F0DA
:1005F800120DBD900024EFF0900023E06036E5A0D6
:10060800541F4480F5A0900012E06005E4F0120F3A
:10061800DA900013E06005E4F0120F2B900014E06C
:100628006005E4F0120D63900015E06018E4F01224
:100638000E178011900023E0700EE5A0541F44802F
:10064800F5A07580FF53A01F900027E0600A1202F2
:1006580037E4900023F0808DE4900037F090003765
:10066800E0FFC3940840030205ED74592FF582E4B6
:0F0678003400F58374FFF0900037E004F080DE6B
:100FDA00900000E0FFF4F580EFF4FEE4F4900025C1
:100FEA00F0A3CEF0900000E025E0F0700B90001125
:080FFA007402F090000014F0F5
:0110020022CB
:100F2B00900001E0FFF4F580EFF4FEE4F49000256F
:100F3B00F0A3CEF0900001E0C313F053A01FE070BC
:0D0F4B000C9000117403F09000017480F010
:010F58002276
:100D6300900002E0FFB4010D75807E900025E4F051
:100D7300A3747E8020EFB4020D7580BD900025E43E
:100D8300F0A374BD800FEFB403137580DB900025CF
:100D9300E4F0A374DBF0900002E004F022EFB4046B
:100DA300187580E7900025E4F0A374E7F090000243
:090DB3007401F09000117404F0C9
:010DBC002214
:100E1700900003E0FFB4010D7580E7900025E4F032
:100E2700A374E78020EFB4020D7580DB900025E402
:100E3700F0A374DB800FEFB403137580BD9000251A
:100E4700E4F0A374BDF0900003E004F022EFB404D3
:100E57001675807E900025E4F0A3747EF090000361
:070E67007401F0900011F08E
:010E6E002261
:0409B000AB07AA06E1
:1009B40090003C120206000E1000AE02AF03E4FCED
:1009C400FD90003CE0F8A3E0F9A3E0FAA3E0FB12F9
:1009D40000CAE47BE87A03F9F812015590003C124E
:1009E40001FA90003CE0F8A3E0F9A3E0FAA3E0FBED
:1009F400C3E49BFFE49AFE740199FDE498FC900023
:100A04003C1201FA90003CE0FCA3E0FDA3E0FEA34D
:100A1400E0FF78081201E790001FEFF090003CA37C
:100A2400A3A3E0900020F05389F043890190001FB4
:0B0A3400E0F58CA3E0F58AD2A9D28C7B
:010A3F002294
:10102000538EBF53890F438910758BF7758DFFC29F
:061030008FD28ED2AB222C
:03000B00020436B6
:10043600C0E0C0F0C083C082C0D075D000C000C08C
:0D04460001C002C003C004C005C006C0070D
:1004530090001FE0F58CA3E0F58A90000EE004F015
:10046300120907120E6F900011E0FDB4012F9000E6
:1004730005E004F07006900004E004F0900016E03C
:10048300C313FEA3E013FFC3900005E09F90000495
:10049300E09E4009E4F0A3F090001204F0EDB402F2
:1004A3002F900007E004F07006900006E004F0903F
:1004B3000018E0C313FEA3E013FFC3900007E09FFF
:1004C300900006E09E4009E4F0A3F090001304F0CE
:1004D300900011E0B4032F900009E004F07006903F
:1004E3000008E004F090001AE0C313FEA3E013FF3A
:1004F300C3900009E09F900008E09E4009E4F0A348
:10050300F090001404F0900011E0B4042F90000B5D
:10051300E004F0700690000AE004F090001CE0C3D1
:1005230013FEA3E013FFC390000BE09F90000AE0CB
:100533009E4009E4F0A3F090001504F0900027E03A
:10054300602890000DE004F0700690000CE004F0C9
:10055300C390000DE0949090000CE09401400BE4F4
:10056300F0A3F0900028E06401F090000EE0C39443
:0A057300644007E4F090001E04F05D
:10057D00D007D006D005D004D003D002D001D000D2
:0B058D00D0D0D082D083D0F0D0E0327C
:03001B00020ACC0A
:100ACC00C0E0C0F0C083C082C0D075D000C000C0F0
:070ADC0004C005C006C007BD
:100AE300758BF7758DFF900010E004F07006900091
:100AF3000FE004F090000FE0FEA3E0FF7C007D65B3
:100B030012004990000FECF0A3EDF0E5A0541F4450
:100B130080F5A0900024E0FFC3ED9FEC9400400714
:0D0B2300A3A3E0F58080037580FF53A01FA1
:100B3000D007D006D005D004D000D0D0D082D0834A
:050B4000D0F0D0E0320E
:100DBD007F03120EBD7E00C3EF943CEE9400500EE7
:100DCD00900024745AF09000227401F08036C3EF25
:100DDD009482EE9400500E9000247446F090002200
:100DED007402F0801FC3EF94C3EE94009000245062
:100DFD000B741EF09000227403F080087405F090BF
:090E0D00002214F0900024E0FF23
:010E160022B9
:10100300E5A0541F4480F5A07580FF53A01FE5A001
:0D101300541F44A0F5A07580AF53A01F220C
:0506870090003DEFF0C2
:10068C00BF3117900023E0FF700304F022EF6401E8
:10069C006003020774900023F02290003DE0FF6499
:1006AC00327031900027E0FE700804F0E4900021D5
:1006BC00F022EE64016003020774900021E004F064
:1006CC00E0D394015003020774E4900027F09000EB
:1006DC001104F022EF6433703C120C26E4900042BB
:1006EC00F0900042E0FB25E02416F582E43400F59E
:1006FC0083E0FEA3E0FF7C007D0A120049743E2BD0
:10070C00F582E43400F583EFF0900042E004F0E071
:10071C00B404CE804290003DE06434704B120BB8B0
:10072C00E4900042F0900042E0FB25E02416F582B4
:10073C00E43400F583E0FEA3E0FF7C007D0A1200A8
:10074C0049743E2BF582E43400F583EFF0900042BF
:10075C00E004F0E0B404CE7B017A00793E900047CF
:08076C007404F0E4FD120CFD21
:010774002262
:1002370090005D74FFF0900021E0600302033590A9
:100247000028E0900060601B74BFF090005EF090A3
:100257000011E02449F582E43400F583E090005F63
:10026700F0800974FFF090005EF0A3F0900011E0B9
:1002770025E02414F582E43400F583E0FAA3E0FBDB
:100287007C007D0AFFAE0212004974492DF5827485
:10029700003CF583E0900059F07C007D0AAF03AE87
:1002A700021200497C007D0A12004974492DF5822B
:1002B70074003CF583E090005AF0900011E025E0CF
:1002C7002414F582E43400F583E0FAA3E0FB7C0014
:1002D7007D64FFAE021200497C007D0A120049745A
:1002E700492DF58274003CF583E090005BF0C3EB89
:1002F70094E8EA94035005A374FFF022900011E0FC
:1003070025E02414F582E43400F583E0FEA3E0FF42
:100317007C037DE81200497C007D0A12004974497C
:100327002DF58274003CF583E090005CF02290008C
:1003370021E064016003020435900028E0700302A5
:10034700040D900011E025E02414F582E43400F553
:1003570083E0FAA3E0FB7C007D0AFFAE02120049AE
:1003670074492DF58274003CF583E0900059F07CC8
:10037700007D0AAF03AE021200497C007D0A12001D
:100387004974492DF58274003CF583E090005AF0DA
:10039700900011E025E02414F582E43400F583E0B1
:1003A700FAA3E0FB7C007D64FFAE021200497C00EB
:1003B7007D0A12004974492DF58274003CF583E0EB
:1003C70090005BF0C3EB94E8EA94035006A374FF34
:1003D700F0803F900011E025E02414F582E434001A
:1003E700F583E0FEA3E0FF7C037DE81200497C0073
:1003F7007D0A12004974492DF58274003CF583E0AB
:1004070090005CF0800C90005974FFF0A3F0A3F00B
:10041700A3F090006074BFF090005EF0900011E0D0
:0F0427002449F582E43400F583E090005FF02271
:100C2600900021E07010900011E004F0E0D39404ED
:100C3600405A7401F022E4FFEF2401FDE433FC90F6
:100C46000011E06D7001EC703EEF25E02416F58290
:100C5600E43400F583E475F06412009EEF25E02489
:100C660016F582E43400F583E0FCA3E0D394B0ECFF
:100C760094044013EF25E02416F582E43400F5834E
:0C0C86007401F0A37490F00FEFB404AC04
:010C9200223F
:100BB800900021E07010900011E014F0E0C394015F
:100BC800505B7404F022E4FFEF2401FDE433FC9051
:100BD8000011E06D7001EC703FEF25E02416F582FE
:100BE800E43400F58374FF75F09C12009EEF25E055
:100BF8002416F582E43400F583E0FCA3E0C3949066
:100C0800EC94015013EF25E02416F582E43400F546
:0D0C1800837404F0A374B0F00FEFB404ABCC
:010C250022AC
:03000000020A40B1
:0C0A4000787FE4F6D8FD758120020A875B
:10001E00BB010689828A83E0225002E722BBFE02E0
:09002E00E32289828A83E4932213
:10003700BB010689828A83F0225002F722BBFE01A8
:02004700F322A2
:10004900BC000BBE0029EF8DF084FFADF022E4CC9B
:10005900F875F008EF2FFFEE33FEEC33FCEE9DEC64
:10006900984005FCEE9DFE0FD5F0E9E4CEFD22EDAA
:10007900F8F5F0EE8420D21CFEADF075F008EF2FF4
:10008900FFED33FD4007985006D5F0F222C398FDE5
:050099000FD5F0EA2282
:10009E00C5F0F8A3E028F0C5F0F8E58215827002ED
:0600AE001583E038F0228A
:1000B400A3F8E0C5F025F0F0E582158270021583FF
:0600C400E0C838F0E8225C
:1000CA00E88FF0A4CC8BF0A42CFCE98EF0A42CFCD5
:1000DA008AF0EDA42CFCEA8EF0A4CDA8F08BF0A453
:1000EA002DCC3825F0FDE98FF0A42CCD35F0FCEBB2
:1000FA008EF0A4FEA9F0EB8FF0A4CFC5F02ECD3977
:0F010A00FEE43CFCEAA42DCE35F0FDE43CFC22E3
:1001190075F008758200EF2FFFEE33FECD33CDCC9D
:1001290033CCC58233C5829BED9AEC99E582984020
:100139000CF582EE9BFEED9AFDEC99FC0FD5F0D6FD
:10014900E4CEFBE4CDFAE4CCF9A88222B800C1B927
:100159000059BA002DEC8BF084CFCECDFCE5F0CB65
:10016900F97818EF2FFFEE33FEED33FDEC33FCEB9E
:1001790033FB10D703994004EB99FB0FD8E5E4F959
:10018900FA227818EF2FFFEE33FEED33FDEC33FC46
:10019900C933C910D7059BE99A4007EC9BFCE99A3A
:1001A900F90FD8E0E4C9FAE4CCFB2275F010EF2F7F
:1001B900FFEE33FEED33FDCC33CCC833C810D7077F
:1001C9009BEC9AE899400AED9BFDEC9AFCE899F8BA
:0E01D9000FD5F0DAE4CDFBE4CCFAE4C8F9224D
:1001E700E8600FECC313FCED13FDEE13FEEF13FFF6
:0301F700D8F1221A
:0C01FA00ECF0A3EDF0A3EEF0A3EFF02278
:10020600A8828583F0D083D08212021D12021D12AD
:10021600021D12021DE473E493A3C583C5F0C583D2
:10022600C8C582C8F0A3C583C5F0C583C8C582C842
:0102360022A5
:100A4C00020598E493A3F8E493A34003F68001F223
:100A5C0008DFF48029E493A3F85407240CC8C333AB
:100A6C00C4540F4420C8834004F456800146F6DF7A
:100A7C00E4800B010204081020408090084EE47EB4
:100A8C00019360BCA3FF543F30E509541FFEE4936F
:100A9C00A360010ECF54C025E060A840B8E493A336
:100AAC00FAE493A3F8E493A3C8C582C8CAC583CA61
:100ABC00F0A3C8C582C8CAC583CADFE9DEE780BE19
:0109060000F0
:00000001FF
