:08000300001803012359500409
:100C7900D2A37E01EE60135F7004C2A38002D2A3E7
:0C0C8900D297C297EE25E0FE80EAD2A3CD
:010C9500223C
:100CD000E4FF7E01EE600F30A3024207D297C29775
:060CE000EE25E0FE80EEAF
:010CE60022EB
:100CFD00D293EF25E04480FF120C79AF05120C79E9
:030D0D00C293226C
:100D1000D293EF25E04481FF120C79120CD0C293DC
:020D2000C2A36C
:010D220022AE
:060B48008B668A678968D4
:100B4E00D2937FBE120C79E4FDAB660568E568AA08
:100B5E00677002056714F9120104FF120C790DBDBE
:040B6E0007E7C29340
:010B72002260
:060B73008B618A628963B8
:100B7900D2937FBF120C79E4FD120CD0AB61AA624B
:100B8900A9638D82758300EF12017D0DBD07EAC24D
:030B990093C2A361
:010B9C002236
:06092E008B568A57895820
:100934007B007A007959120B73E4255FFFE43420BD
:10094400AB56AA57A9588FF0120200AB56AA57A962
:1009540058900002E55D12017D900003E55C1201F0
:100964007D900004E55B12017D900005E55A1201BB
:100974007D900006E55912017D900007E55E0201B5
:010984007DF5
:100A6800E4F5651201D5F56490000212011DF562E6
:100A780090000312011DF56190000412011DF5603C
:100A880090000512011DF55F90000612011DF55E2C
:100A980090000712011DF5637B007A00795E020B56
:010AA8004805
:100BC60078567C007D007BFF7A0079037E007F08E3
:100BD6001200DEC293C297E4FD7F07120CFD7B0074
:070BE6007A007956020A684B
:1007F9000818000100010001000108100031003251
:1008090000330034040801010101040CFFFFFFFF5C
:100A2000E4F55674082556F8E6FFFDE55625E02462
:100A300018F8E6FA08E66D7001EA6022EFB4010DDD
:100A4000E55625E02410F808E6FF1203A4E5562534
:100A5000E02418F808E6FF74082556F8A60705569E
:070A6000E556C3940440BCFD
:010A6700226C
:10086300E50C25E0FFA2B0E4334FF50CE50D25E0E0
:10087300FFA2B1E4334FF50DE50E25E0FFA2B2E48C
:10088300334FF50EE50F25E0FFA2B3E4334FF50F29
:10089300E4FF740C2FF8E6700CEF25E02418F8E45D
:1008A300F608F6800BEF25E02418F87600087601A9
:1008B300E50F7005752D018008E50FB4FF03E4F51E
:0508C3002D0FBF04CD64
:0108C800220D
:0B0D23000000000000000000DFF622CE
:100C3700C2AFC2947FFA120D237FFA120D23D2940A
:100C47007F3C120D23A29492013094FDD2AFA201F2
:010C5700B3E9
:010C58002279
:020B9D00AE07A1
:100B9F00C2AF7D01ED601DC2947F02120D235E7006
:100BAF0004C2948002D2947F3C120D23D294ED257F
:060BBF00E0FD80E0D2AF72
:010BC500220D
:100AEA00E4FE7D01ED6024C2947F02120D23D294AC
:100AFA007F02120D2330940442068004EDF452065C
:0F0B0A007F3C120D23ED25E0FD80D9D2AFAF0661
:010B190022B9
:100CE700120C37920030000A7FCC120B9D7F441202
:050CF7000B9DA200B3FB
:010CFC0022D5
:100B1A00120C3792003000227FCC120B9D7FBE123E
:100B2A000B9D120AEAAC07120AEAEFFEAD047C003A
:0D0B3A00E42DFFEC3E8FF0120200A200B38C
:010B4700228B
:100819000D41C0F9A4B0999282F880908883C608E6
:0C0829004EFFFFFFFFFFFFFFFF0140003C
:100AA900E5A0541F44E0F5A07580FF53A01FE5A001
:100AB900541F44C0F5A0AF407480A807088002C342
:100AC90013D8FCF58053A01FE5A0541F44E0F5A0FE
:100AD900744E2540F8E6F58053A01F0540534007A2
:010AE90022EA
:080709008F6C8E6B8D6A8C6908
:10071100E4F575E47B0AFAF9F8AF6CAE6BAD6AAC3F
:10072100691202AAAF03746D2575F8A607AF6CAE06
:100731006BAD6AAC69E47B0AFAF9F81202AA8F6C14
:100741008E6B8D6A8C690575E575B407C67575077D
:10075100746D2575F8E6700A744E2575F876FFD527
:1007610075EEC3E575648094804016746D2575F847
:10077100E62441F8E6FF744E2575F8A60715758045
:01078100E196
:010782002254
:1008350008360000000000000000012600012D0020
:10084500012B00012C01013E00012707012A0001AF
:0D0855003F010121000222000002240000EA
:10078300120CB3D2AF7F021208C9120CE7120BC6C8
:100793007B007A00792E12092E120A20E526B40175
:1007A300F8E4F526E52B703FE532B53A0DE533B5B0
:1007B3003B08E534B53C03E4F53FE52D700DFB7ACA
:1007C30000792E12092E1209D48003120985E53F00
:1007D3007005120C5980C2E5A0541F4480F5A07522
:1007E30080FF53A01F80B2E52BB40105120BED80EF
:0607F300A8120C9680A381
:1008C90075590075581075570E755600E4FCFDFEF4
:1008D900AB59AA58A957A85612021FE47BE87A0314
:1008E900F9F81202AA8F598E588D578C56C3E49580
:1008F90059F559E49558F55874019557F557E49504
:1009090056F556AF59AE58AD57FC780812033C8FCF
:10091900288559295389F043890185288C85298A95
:04092900D2A9D28CF1
:01092D0022A7
:03000B000205E506
:1005E500C0E0C0F0C083C082C0D075D000C000C0DC
:0D05F50001C002C003C004C005C006C0075D
:1006020085288C85298A05210523E5237002052288
:10061200120863120AA9E521C394644009752601F0
:10062200752100633E01C3E52394F4E52294014061
:1006320009752200752300632C01E53F701C052516
:10064200E52570020524C394C4E52494094011757C
:100652002400752500753F0180067524007525006C
:10066200D007D006D005D004D003D002D001D000EC
:0B067200D0D0D082D083D0F0D0E03296
:1003A4008F57E55764317039E52B7010E53F7002C3
:1003B400803D752B01752707E4F52A22E52B64019E
:1003C40060030204AB74FD2527F527C36480948081
:1003D4005006752707E4F52B7B007A00792E02047A
:1003E400A8E55764327038E52B700FE53F7004754B
:1003F4003F0122752B0275270722E52B6402600357
:100404000204AB74FD2527F527C36480948050064D
:10041400E4F52B7527077B007A0079360204A8E5FA
:10042400576433703BE52B7007E53F7003753F015C
:10043400E52BB401157B007A00792E12054C1209C4
:10044400D47B007A00792E120A68E52B6402705777
:10045400FB7A00793612054C7B007A0079368044A9
:10046400E55764347041E52B700CE53F7005753F2A
:10047400018003752D01E52BB401157B007A007909
:100484002E1204AC1209D47B007A00792E120A6869
:10049400E52BB402127B007A0079361204AC7B009F
:0804A4007A0079361209DA2210
:100BED00E52A700BFB7A00792E12092E752A01E584
:100BFD002C700F744E2527F876FF744D2527F87647
:060C0D00FF221209D422AF
:100C9600E52C700F744E2527F876FF744D2527F83E
:0D0CA60076FF227B007A0079361209DA22EF
:100C5900E53E600DE5A0541F4480F5A07580FE8037
:100C69000BE5A0541F4480F5A07580FF53A01F22F7
:100CB300E5A0541F4480F5A07580FF53A01FE5A055
:0D0CC300541F44A0F5A07580AF53A01F2260
:100985007F07744E2FF876FF1FBF02F67B007A00B3
:100995007956120B1A120CE7E557AE567804CEA21B
:1009A500E713CE13D8F8F5578E56FF7C007D0A1253
:1009B500019F74412FF8E6F550AE56AF577C007D88
:0E09C5000A12019F74412DF8E6F54F854D4E44
:0109D3002201
:0D0C130012011D540FFD1F120C207DBF1F8C
:100C2000BDBF07744E2FF876BF2274412DF8E6FE43
:070C3000744E2FF8A6062206
:0609D4007B007A00792E81
:1009DA0090000412011DC4540FFD7F07120C2090D1
:1009EA000004120C1390000512011DC4540FFD7F60
:1009FA0004120C20900005120C1390000612011D1F
:100A0A00C4540FFD7F01120C2090000612011D54E0
:060A1A000FFD1F020C207D
:10054C00E5276407702E9000040412014A90000401
:10055C0012011DFF540FFEBE0A0BEF54F024109035
:10056C00000412017D90000412011D642470699036
:10057C0000048061E5276404702E900005041201CC
:10058C004A90000512011DFF540FFEBE0A0BEF54DA
:10059C00F0241090000512017D90000512011D64DD
:1005AC00607035900005802D900006740112014A90
:1005BC0090000612011DFF540FFEBE0A0BEF54F003
:1005CC00241090000612017D90000612011DB460EB
:0905DC0007900006E412017D22E3
:1004AC00E5276407703190000474FF12014A900034
:1004BC000412011DFF540FFEBE0F0BEF54F0240964
:1004CC0090000412017D90000412011D64F9706FFC
:1004DC0090000474238065E5276404703190000556
:1004EC0074FF12014A90000512011DFF540FFEBE4D
:1004FC000F0BEF54F0240990000512017D900005BC
:10050C0012011D64F970389000057459802E90000A
:10051C000674FF12014A90000612011DFF540FFED3
:10052C00BE0F0BEF54F0240990000612017D9000D1
:10053C000612011DB4F908900006745912017D22AF
:0300000002067D78
:0C067D00787FE4F6D8FD7581750206C494
:10000E00E709F608DFFA8046E709F208DFFA803ED4
:10001E0088828C83E709F0A3DFFA8032E309F608C1
:10002E00DFFA8078E309F208DFFA807088828C8329
:10003E00E309F0A3DFFA806489828A83E0A3F608DD
:10004E00DFFA805889828A83E0A3F208DFFA804CB7
:10005E0080D280FA80C680D4806980F2803380108E
:10006E0080A680EA809A80A880DA80E280CA8033F7
:10007E0089828A83ECFAE493A3C8C582C8CCC5836F
:10008E00CCF0A3C8C582C8CCC583CCDFE9DEE7803F
:10009E000D89828A83E493A3F608DFF9ECFAA9F0BE
:1000AE00EDFB2289828A83ECFAE0A3C8C582C8CC14
:1000BE00C583CCF0A3C8C582C8CCC583CCDFEADE2D
:1000CE00E880DB89828A83E493A3F208DFF980CC8F
:1000DE0088F0EF60010E4E60C388F0ED2402B40488
:1000EE000050B9F582EB2402B4040050AF2323452F
:0600FE00822390005E73F6
:10010400BB010689828A83E0225002E722BBFE02F9
:09011400E32289828A83E493222C
:10011D00BB010CE58229F582E5833AF583E0225097
:10012D0006E92582F8E622BBFE06E92582F8E222E1
:0D013D00E58229F582E5833AF583E49322FB
:10014A00BB010FF8E58229F582E5833AF583E028B9
:10015A00F0225009C58229F8E58226F622BBFE095B
:10016A00C58229F8E22582F222F8EA2583F583E995
:03017A00932822A5
:10017D00F8BB010DE58229F582E5833AF583E8F0B8
:10018D00225006E92582C8F622BBFE05E92582C864
:02019D00F2224C
:10019F00C2D5EC30E709B2D5E4C39DFDE49CFCEE7B
:1001AF0030E715B2D5E4C39FFFE49EFE12034FC3A1
:1001BF00E49DFDE49CFC800312034F30D507C3E49C
:0601CF009FFFE49EFE22EA
:1001D500BB010A89828A83E0F5F0A3E022500687F5
:1001E500F009E71922BBFE07E3F5F009E3192289B7
:0B01F500828A83E493F5F074019322EA
:10020000BB010A89828A83F0E5F0A3F0225006F749
:0F02100009A7F01922BBFE06F3E5F009F3192246
:10021F00E88FF0A4CC8BF0A42CFCE98EF0A42CFC7E
:10022F008AF0EDA42CFCEA8EF0A4CDA8F08BF0A4FC
:10023F002DCC3825F0FDE98FF0A42CCD35F0FCEB5B
:10024F008EF0A4FEA9F0EB8FF0A4CFC5F02ECD3920
:0F025F00FEE43CFCEAA42DCE35F0FDE43CFC228D
:10026E0075F008758200EF2FFFEE33FECD33CDCC47
:10027E0033CCC58233C5829BED9AEC99E5829840CA
:10028E000CF582EE9BFEED9AFDEC99FC0FD5F0D6A7
:10029E00E4CEFBE4CDFAE4CCF9A88222B800C1B9D1
:1002AE000059BA002DEC8BF084CFCECDFCE5F0CB0F
:1002BE00F97818EF2FFFEE33FEED33FDEC33FCEB48
:1002CE0033FB10D703994004EB99FB0FD8E5E4F903
:1002DE00FA227818EF2FFFEE33FEED33FDEC33FCF0
:1002EE00C933C910D7059BE99A4007EC9BFCE99AE4
:1002FE00F90FD8E0E4C9FAE4CCFB2275F010EF2F29
:10030E00FFEE33FEED33FDCC33CCC833C810D70728
:10031E009BEC9AE899400AED9BFDEC9AFCE899F863
:0E032E000FD5F0DAE4CDFBE4CCFAE4C8F922F6
:10033C00E8600FECC313FCED13FDEE13FEEF13FF9F
:03034C00D8F122C3
:10068900020783E493A3F8E493A34003F68001F2FD
:1006990008DFF48029E493A3F85407240CC8C33372
:1006A900C4540F4420C8834004F456800146F6DF41
:1006B900E4800B01020408102040809007F9E47ED1
:1006C900019360BCA3FF543F30E509541FFEE49336
:1006D900A360010ECF54C025E060A840B8E493A3FD
:1006E900FAE493A3F8E493A3C8C582C8CAC583CA28
:1006F900F0A3C8C582C8CAC583CADFE9DEE780BEE0
:010862000095
:10034F00BC000BBE0029EF8DF084FFADF022E4CC92
:10035F00F875F008EF2FFFEE33FEEC33FCEE9DEC5B
:10036F00984005FCEE9DFE0FD5F0E9E4CEFD22EDA1
:10037F00F8F5F0EE8420D21CFEADF075F008EF2FEB
:10038F00FFED33FD4007985006D5F0F222C398FDDC
:05039F000FD5F0EA2279
:00000001FF
