:0F036E000A0F14191E23282D32373C41464B50DD
:0C000E00040A00000000010800010900C5
:10032300D2AF12035FE5A0541F4480F5A07580FF90
:100333007F327E001201DA7518017F647E007D0032
:070343007C0012023E80FE67
:1001DA0075170075161075150E751400E4FCFDAB45
:1001EA0017AA16A915A81412001EE47BE87A03F9C7
:1001FA00F81200A98F178E168D158C14C3E4951763
:10020A00F517E49516F51674019515F515E4951488
:10021A00F514AF17AE16AD15FC780812013B8F1016
:10022A008517115389F043890185108C85118AD26B
:03023A00A9D28CBA
:01023D00229E
:1002F400E4FCFDFEAB0DAA0CA90BA80A12001EE437
:100304007B64FAF9F81200A9C3E50D9FFEEFF4042B
:0E031400FFEEF4047512008F13750E00F50F46
:0103220022B8
:03000B0002029C52
:10029C00C0E0C0F0C083C082C0D075D000C000C028
:0D02AC0001C002C003C004C005C006C007A9
:1002B900E50990036E93FF1202F4E508700C050935
:1002C900E509B40F0B7508018006D5090375080007
:1002D900D007D006D005D004D003D002D001D00079
:0B02E900D0D0D082D083D0F0D0E03223
:10023E00AB07AA06A905A8047F007E107D0E7C00E0
:10024E001200A98F0D8E0C8D0B8C0AAF18E4FCFDDD
:10025E00FEAB0DAA0CA90BA80A12001EE47B64FAD1
:10026E00F9F81200A9C3E50D9FFEEFF404FFEEF4BA
:10027E00047512008F13750E00F50F53890F438905
:0D028E001085128D85138BD2ABD28ED280DD
:01029B002240
:03001B0002034A93
:10034A00308009850E8D850F8BC2803285128D858E
:05035A00138BD280327C
:0F035F00E5A0541F44A0F5A07580AF53A01F2246
:0300000002014EAC
:0C014E00787FE4F6D8FD75811802019559
:10001E00E88FF0A4CC8BF0A42CFCE98EF0A42CFC81
:10002E008AF0EDA42CFCEA8EF0A4CDA8F08BF0A4FF
:10003E002DCC3825F0FDE98FF0A42CCD35F0FCEB5E
:10004E008EF0A4FEA9F0EB8FF0A4CFC5F02ECD3923
:0F005E00FEE43CFCEAA42DCE35F0FDE43CFC2290
:10006D0075F008758200EF2FFFEE33FECD33CDCC4A
:10007D0033CCC58233C5829BED9AEC99E5829840CD
:10008D000CF582EE9BFEED9AFDEC99FC0FD5F0D6AA
:10009D00E4CEFBE4CDFAE4CCF9A88222B800C1B9D4
:1000AD000059BA002DEC8BF084CFCECDFCE5F0CB12
:1000BD00F97818EF2FFFEE33FEED33FDEC33FCEB4B
:1000CD0033FB10D703994004EB99FB0FD8E5E4F906
:1000DD00FA227818EF2FFFEE33FEED33FDEC33FCF3
:1000ED00C933C910D7059BE99A4007EC9BFCE99AE7
:1000FD00F90FD8E0E4C9FAE4CCFB2275F010EF2F2C
:10010D00FFEE33FEED33FDCC33CCC833C810D7072B
:10011D009BEC9AE899400AED9BFDEC9AFCE899F866
:0E012D000FD5F0DAE4CDFBE4CCFAE4C8F922F9
:10013B00E8600FECC313FCED13FDEE13FEEF13FFA2
:03014B00D8F122C6
:10015A00020323E493A3F8E493A34003F68001F295
:10016A0008DFF48029E493A3F85407240CC8C333A6
:10017A00C4540F4420C8834004F456800146F6DF75
:10018A00E4800B010204081020408090000EE47EF7
:10019A00019360BCA3FF543F30E509541FFEE4936A
:1001AA00A360010ECF54C025E060A840B8E493A331
:1001BA00FAE493A3F8E493A3C8C582C8CAC583CA5C
:1001CA00F0A3C8C582C8CAC583CADFE9DEE780BE14
:01001A0000E5
:00000001FF
