:10124500B4AEBFDAC9E8D6C3CDEAB1CFA3BA31325D
:10125500334142430A00B7A2CBCD3D3A00BBB6D3DA
:10126500ADCAB9D3C35354433135B5A5C6ACBBFAE2
:03127500210A004B
:100EFA009000677455F0A374ABF0A37498F0A31232
:100F0A0006C5499602D2786E7C007D017BFF7A1273
:100F1A0079627E007F16120590D2AFE4FF1211416A
:100F2A007BFF7A1279451210807B017A00796E1262
:100F3A001080900068E0FEA3E0FFE4FCFD900090C2
:100F4A0004F01212FC7BFF7A12795B90006AE0FCD3
:100F5A00A3E0FDA3E0FEA3E0FF90008B7401F01272
:100F6A000003900068E0FEA3E0FF12133E900067C2
:070F7A00E0FF120F8180FE71
:01136D00225D
:05136800252E32660095
:10132D00C10AC109410066004100000041000100F1
:100C8D0090009C1206B99000A0EBF0A3EAF0A3E946
:010C9D00F066
:100C9E00E4A3F0A3F090009CE0FCA3E0FDA3E0FE33
:100CAE00A3E0FFEC33502B90009CA3A3A3E012060D
:100CBE009590009C1206B99000A0E0FBA3E475F09D
:100CCE0001120630A9F0FA742D1205FC9000A4E072
:100CDE0004F0E47B0AFAF9F890009CE0FCA3E0FD36
:100CEE00A3E0FEA3E0FF12118AEB2430FF9000A3D5
:100CFE00E0FE04F0EEFD3395E0FC74A52DF5827454
:100D0E00003CF583EFF090009CE0FCA3E0FDA3E037
:100D1E00FEA3E0FFE47B0AFAF9F812118A90009C18
:100D2E001206B9E4FFFEFDFC90009CE0F8A3E0F98A
:100D3E00A3E0FAA3E0FBD31206A350969000A3E023
:100D4E00FFA3E02FF09000A3E0FF14F0D3EF648038
:100D5E0094804028E0FF3395E0FE74A52FF5827451
:100D6E00003EF583E0FF9000A0E0FBA3E475F001E8
:100D7E00120630A9F0FAEF1205FC80C99000A0E02F
:100D8E00FBA3E0FAA3E0F9E41205FC9000A4E0FF57
:010D9E002232
:0B0D9F009000E0EBF0A3EAF0A3E9F005
:100DAA00A31206C5000000009000E71206C5000065
:100DBA000001121318EF149000EBF09000EBE0C35F
:100DCA0094005003020E5F9000E3E0F8A3E0F9A359
:100DDA00E0FAA3E0FBC000C001C002C0039000E03B
:100DEA00E0FBA3E0FAA3E0F99000EBE0F58275835B
:100DFA00001205CFFF3395E0FEEF24D0FFEE34FF5B
:100E0A00FEE4FCFD9000E7E0F8A3E0F9A3E0FAA312
:100E1A00E0FB120646D003D002D001D000EB2FFF30
:100E2A00EA3EFEE93DFDE83CFC9000E31206B9907B
:100E3A0000E7E0FCA3E0FDA3E0FEA3E0FFE47B0AF9
:100E4A00FAF9F81206469000E71206B99000EBE0AC
:100E5A0014F0020DC59000E3E0FCA3E0FDA3E0FE60
:030E6A00A3E0FF03
:010E6D002262
:10114100EF700B53877F759850538EBF8025EFB496
:101151000113E4F58E759850438920758DFA758BCE
:10116100FAD28E8021EF6402701C53877F759850EC
:10117100438E40538EFE53890F438920758BFD7535
:091181008DFDC2ABD28ED2AC226E
:08136000C20A8F99300AFD2238
:0A134D007F0D1213607F0A02136087
:0B10800090009CEBF0A3EAF0A3E9F065
:10108B0012131890009FEEF0A3EFF0E4FDFC90001C
:10109B00A0E024FFFF90009FE034FFFEC3ED9FEC28
:1010AB009E501D90009CE0FBA3E0FAA3E0F98D821B
:1010BB008C831205CFFF1213600DBD00010C80CE87
:1010CB0090009CE0FBA3E0FAA3E0F98D828C8312E5
:0E10DB0005CFFEB40A0302134DAF06121360D8
:0110E90022E4
:10120C009000ECEBF0A3EAF0A3E9F09000B374FFCC
:10121C00F0A37413F0A37468F0A31206B99000EC59
:10122C00E0FBA3E0FAA3E0F912086F9000ECE0FBFE
:09123C00A3E0FAA3E0F90210801E
:1012FC007B017A007991120C8D7B017A0079911225
:0B130C001080900090E0600312134D71
:0113170022B3
:100003009000871206B9121080900087E0FCA3E0ED
:10001300FDA3E0FEA3E0FFA3E0900090F00212FC3A
:04100500AD07AC0681
:10100900EC54F0C4540FFFC3940AEF40052437FE93
:1010190080032430FEEE1205FCEC540FFFC3940A42
:10102900EF40052437FE80032430FE900001EE12C4
:10103900060EED54F0FFE4C4F854F0C8EFC4540FA1
:1010490048FFC3940AEF40052437FE80032430FE8D
:10105900900002EE12060EED540FFFC3940AEF4002
:10106900052437FF80032430FF900003EF12060E9A
:07107900900004E402060EE2
:0F133E007B017A00798412100512108002134D82
:100F8100E4900084F0900084E0FEC39408502AEFBE
:100F9100A806088002C333D8FC30E7047E31800202
:100FA1007E30900084E02485F582E43400F583EE00
:100FB100F0900084E004F080CC900084E02485F57A
:100FC10082E43400F583E4F0900084F07B017A0040
:100FD1007985121318900084E0FDC39FEE6480F8B8
:100FE100748098501C74852DF582E43400F583E0FB
:100FF100FF1213607F20121360900084E004F080E0
:04100100CB02134DBE
:0B10EA009000EFEBF0A3EAF0A3E9F0A8
:1010F500900066E0FFEDD39F4002AD07E4FFEFC32C
:101105009D502374022FF582E43400F583E0FE90B0
:1011150000EFE0FBA3E475F001120630A9F0FAEE4A
:101125001205FC0F80D89000EFE0FBA3E0FAA3E0E6
:0B113500F9E41205FC900066F0AF0525
:01114000228C
:1012AA009000F2EBF0A3EAF0A3E9F0AF051DEF60BE
:1012BA00199000F2E0FBA3E475F001120630A9F0E0
:0B12CA00FA1205B6FF12136080E1224B
:10127800900066E0FED394004022900000E06E608B
:1012880006EEF0E4A3F022900001E0C3941E501192
:10129800E02FF0E0C3941E4008D20922E490000039
:0112A800F055
:0112A9002222
:09135700300905C20912136D22D0
:030023000211CEF9
:1011CE00C0E0C083C082C0D075D000C00730981C6C
:1011DE00C298900066E0C394645011E0FF04F0746E
:1011EE00022FF582E43400F583E599F0309904C2BC
:0E11FE0099D20AD007D0D0D082D083D0E03270
:10080A00E50824B3F582E43400F583E00508229074
:10081A0000B03007039000B3E475F0011206F60247
:10082A0005B62000E97F2ED2008018EF540F2490DD
:10083A00D43440D4FF30040BEF24BFB41A00500361
:10084A002461FFE50960021509050CE50C70020533
:10085A000B30070E9000B0E475F0011206F6EF02B5
:10086A0005FC0212D57403D2078003E4C207F50817
:10087A009000B012070DE4F509F50BF50CE50960D7
:10088A00077F2012084D80F5750AFFC201C200C217
:10089A0002C203C205C206C208120819FF700D304F
:1008AA0007057F0012085EAF0CAE0B22B4255FC2AB
:1008BA00D5C204120819FF24D0B40A00501A75F0E0
:1008CA000A780930D50508B6FF0106C6A426F6201F
:1008DA00D5047002D20380D924CFB41A00EF500491
:1008EA00C2E5D204020B50D20180C6D20080C0D227
:1008FA000280BCD2D580BAD20580B47F2012084DBE
:10090A002002077401B5090040F112080AFF120813
:10091A004D020887D208D206809512080AFB1208EF
:10092A000AFA12080AF94A4B7006794E7A0C7BFFCA
:10093A0020022EE509602A7E008E82758300120548
:10094A00CF60060EEE650A70F0C2D5EBC0E0EAC0D1
:10095A00E0E9C0E0EE120BB1D0E0F9D0E0FAD0E065
:10096A00FB1205B6FF60AAEBC0E0EAC0E0E9C0E00E
:10097A0012084DD0E02401F9D0E03400FAD0E0FBAF
:10098A00E50A0460DCD50AD98087D20280A2120B5C
:10099A009360F7E50A700104120026A90A600DE5C2
:1009AA000A600914F50A120C3BEF60F3EA30E70219
:1009BA00F404C3995079EAF4250A0430E701E404FF
:1009CA00F50A800D120B9360C1EA050A250A120086
:1009DA0026EA9000DFF030E701E4250A04D50A048C
:1009EA0020050114120BB1E4C0E0120C3B9000DFA9
:1009FA00E0601320E70714F0120835802204F0D0D3
:100A0A00E014C0E07F00120835E50A600712082CDE
:100A1A00150A800B30050312082CD0E0020887D093
:100A2A00E00480C4120B93609EE50A04120026902B
:100A3A0000DFEAF0E50A2005026001042404120B33
:010A4A00B1FA
:100A4B0074FF04C0E0120C3B120835E50A200502C6
:100A5B00600312082CD0E0B50AE87F4512083F90DE
:100A6B0000DFE07F2B30E7047F2DF404C0E0120899
:100A7B004DD0E075F00A84C0F0120836D0E01208B1
:100A8B0036020887791080027908C206C2088008EE
:100A9B00D2D5790A8004790AC2D5E50A047002F529
:100AAB000AE4FAFDFEFF12080AFC7B082001131270
:100ABB00080AFD7B1030000A12080AFE12080AFF12
:100ACB007B20EC3382D592D55013C3E43000069FC4
:100ADB00FFE49EFEE42001039DFDE49CFCE4CBF8C7
:100AEB00C201EC700CCFCECDCCE824F8F870F380BB
:100AFB0017C3EF33FFEE33FEED33FDEC33FCEB337B
:100B0B00FB994002FB0FD8E9EB300105F8D0E0C4AC
:100B1B0048B201C0E00AEC4D4E4F78207B0070C20A
:100B2B00EAB50A0040BCC0E0120BB3D0F0D0E02015
:100B3B000104C4C0E0C4B201C0F0120836D0F0D535
:100B4B00F0EB0208871207160924530A8F5808F591
:100B5B004C08F1420A934F0A9B440A9B49090A43EA
:100B6B000AA15509CE460A2E450998470C6E500826
:100B7B00F92D08FD2E09202B090123091E200C57E6
:100B8B002A08B94800000918E50AB4FF03750A06DC
:100B9B0012080AFC12080AFD12080AFE12080AFFC4
:100BAB009000D8020063790AA2D5200314300509FE
:100BBB00B910020404B9080104A2D52006025001A1
:100BCB00042002689202B509005034C0E07F203047
:100BDB0003197F30A20272067205500F120C0AC263
:100BEB0002C206C205C2087F30800F300503E9C080
:100BFB00E012084D300503D0E0F9D0E0B509CC3058
:100C0B0005177F30B9100C12084D7F583004077F41
:100C1B00788003B9080312084D3002057F2D0208B6
:100C2B004D7F202008F87F2B2006F322920280CFE5
:100C3B007F00B40700500B24D8F582E43400F58311
:100C4B00E0FF22286E756C6C2900D20112080A3065
:100C5B0001F8C201780930D50108F60208B92D5008
:100C6B0043495812080A2403B405004001E4900CD0
:100C7B00699312083E743A12083ED20375090402B6
:020C8B000A8FCE
:10002600F920E73624F950037907E4F42402FBE5C6
:1000360082158270021583DBF6E024FB501BE96013
:1000460014E4F0E582158270021583E004F0B40A28
:0D00560008E4F0D9EE7401F00A22C2D522B0
:10006300ED33EC3392D5FA602AB4FF33EDC2E77B6C
:10007300FF60067A007988E4227A00799120D5041A
:100083007A00798C224E614E002B494E46002D4951
:100093004E4600E47A08F0A3DAFC7B00740722C022
:1000A30083C082ECC0E0EDC0E0EEC0E0EFC0E0EA68
:1000B30075F010A4CAABF075F04DA42BFBE435F03A
:1000C300FCEA2410FAEB34C5FBEC34D9FCEDC2E7AF
:1000D300FF75F056A4F42411C5F0F434C58FF0A4D1
:1000E3002AE5F03BE43CF020E714120436D0E0FFAD
:1000F300D0E0FED0E0FDD0E0FC1203698014F404EC
:10010300120436D0E0FFD0E0FED0E0FDD0E0FC12D8
:100113000260D082D083E0FAEDD2E7CD33EC332412
:1001230082FBE4C3CF33CFCE33CECD33CD33DBF33A
:100133007B0775F00A846004F0A31B0AE5F0F0A3C3
:100143008FF0740AA4FFACF08EF0740AA42CFEACFA
:10015300F050010C8DF0740AA42CFDE435F0F0A3EB
:05016300DBDE74072241
:100168000204ABE86480F8E933E83360110460F016
:10017800ED33EC337009E8FCE9FDEAFEEBFF2204FD
:1001880060DED3EB9FEA9EE99DE8C2E78CF0C2F7F8
:1001980095F0400CE8CCF8E9CDF9EACEFAEBCFFBC4
:1001A80012047685D0F05804700320D5B3E80470A3
:1001B800075002B2D50204B592D5EC0460F7E4CC3E
:1001C800C0E0C398F8603B94186008400DD0E0FB8D
:1001D80002048DE4FBFAC9FC8028E830E406E4C98F
:1001E800FBE4CAFCE830E305E4C9CACBFCE85407E1
:1001F8006010F8C3E913F9EA13FAEB13FBEC13FCEC
:10020800D8F130F52FC3E49CFCEF9BFFEE9AFEED8E
:1002180099FDD0E0FBEF4E4D4C701222DB03020437
:10022800B2EC2CFCEF33FFEE33FEED33FDED30E79F
:10023800EB02048DEF2BFFEE3AFEED39FDD0E0FB2B
:1002480050130BBB00030204B5ED13FDEE13FEEFD4
:0802580013FFEC13FC02048DFE
:10026000EC4D6011E8497017ED33EC3304600DE498
:10027000FCFFFEFD22E933E8330470F80204AB1200
:10028000047658046009E4CC248150062850090201
:1002900004B52840030204B2C0E0EB4A7044B980C0
:1002A00006D0E0FB0204A1EF4E701CBD8008EBFFFE
:1002B000EAFEE9FD80EBE98DF0A4FEE5F0020349DA
:1002C000E9CDF9EAFEEBFFEF89F0A4FCE5F0CE8979
:1002D000F0A42EFFE435F0CD89F0A42DFEE435F036
:1002E0008067EF4E7005BD80D780C3EF8BF0A4AC64
:1002F000F0EE8BF0A42CFCE435F0F8EF8AF0A42C9F
:10030000E5F038FCE433CB8DF0A42CFCE5F03BF8B1
:10031000EE8AF0A42CFCE5F038F8E433CF89F0A4A1
:100320002CFCE5F038CF3400CE89F0A42FFFE5F0A7
:100330003EFEE433C98DF0A42EFEE5F039CD8AF0FF
:10034000A42FFFE5F03EFEE43DFD33D0E0FB500777
:100350000BBB000F0204B5EC2CFCEF33FFEE33FEB9
:06036000ED33FD02048DE7
:100366000204B5EC5D046005E8590470030204ABB1
:10037600120476580460F6EC4860F2EC7004FDFE58
:10038600FF22C860DB2481C85009C398600250066A
:100396000204B29850CAF582E9294B4A7005AB822D
:1003A6000204A175F0007C1A7880C3EF9BEE9AEDEB
:1003B60099400DC3EF9BFFEE9AFEED99FDE842F0E2
:1003C600DC23ACF0D0E0FFD0E0FED0E0FDAB822035
:1003D600E7101BEB60BAEC2CFCEF33FFEE33FEEDBF
:1003E60033FD02048DE803F830E705C0F075F00030
:1003F600EF2FFFEE33FEED33FD40B830E7C280AAA3
:100406003F8000004120000042C80000447A0000FE
:10041600461C400047C35000497424004B18968080
:100426004CBEBC205A0E1BCA6753C21C749DC5AE77
:10043600FB60065407601C2323120464EB543860E7
:100446000912045012045F120260ECF8EDF9EEFA9C
:10045600EFCB22EB12045F80F1543803241C900486
:1004660006FE93FC0EEE93FD0EEE930ECE93FF2248
:10047600E9D2E7C933E833F892D5EDD2E7CD33ECCC
:0704860033FC5002B2D52245
:10048D00EC30E7100FBF000C0EBE00080DBD0004D0
:10049D000BEB6014A2D5EB13FCED92E7FD2274FF7C
:1004AD00FCFDFEFF22E480F8A2D574FF13FC7D80D5
:0304BD00E480EFE9
:03000000020E6E7F
:0C0E6E00787FE4F6D8FD758121020EB5F6
:1004C000E709F608DFFA8046E709F208DFFA803E1E
:1004D00088828C83E709F0A3DFFA8032E309F6080B
:1004E000DFFA8078E309F208DFFA807088828C8373
:1004F000E309F0A3DFFA806489828A83E0A3F60827
:10050000DFFA805889828A83E0A3F208DFFA804C00
:1005100080D280FA80C680D4806980F280338010D7
:1005200080A680EA809A80A880DA80E280CA803340
:1005300089828A83ECFAE493A3C8C582C8CCC583B8
:10054000CCF0A3C8C582C8CCC583CCDFE9DEE78088
:100550000D89828A83E493A3F608DFF9ECFAA9F007
:10056000EDFB2289828A83ECFAE0A3C8C582C8CC5D
:10057000C583CCF0A3C8C582C8CCC583CCDFEADE76
:10058000E880DB89828A83E493A3F208DFF980CCD8
:1005900088F0EF60010E4E60C388F0ED2402B404D1
:1005A0000050B9F582EB2402B4040050AF23234578
:0605B00082239005107388
:1005B600BB010689828A83E0225002E722BBFE0243
:0905C600E32289828A83E4932276
:1005CF00BB010CE58229F582E5833AF583E02250E1
:1005DF0006E92582F8E622BBFE06E92582F8E2222B
:0D05EF00E58229F582E5833AF583E4932245
:1005FC00BB010689828A83F0225002F722BBFE01DE
:02060C00F322D7
:10060E00F8BB010DE58229F582E5833AF583E8F022
:10061E00225006E92582C8F622BBFE05E92582C8CE
:02062E00F222B6
:10063000A3F8E0C5F025F0F0E5821582700215837D
:06064000E0C838F0E822DA
:10064600E88FF0A4CC8BF0A42CFCE98EF0A42CFC53
:100656008AF0EDA42CFCEA8EF0A4CDA8F08BF0A4D1
:100666002DCC3825F0FDE98FF0A42CCD35F0FCEB30
:100676008EF0A4FEA9F0EB8FF0A4CFC5F02ECD39F5
:0F068600FEE43CFCEAA42DCE35F0FDE43CFC2262
:10118A00C2D5E830E70FB2D5E4C39BFBE49AFAE490
:10119A0099F9E498F8EC30E717B2D51211C01207A2
:1011AA0078E4C39BFBE49AFAE499F9E498F880039B
:1011BA0012077830D50DE4C39FFFE49EFEE49DFD3F
:0411CA00E49CFC2283
:0E069500C3E49FFFE49EFEE49DFDE49CFC2276
:1006A300EB9FF5F0EA9E42F0E99D42F0EC6480C8CE
:0606B30064809845F0226E
:0C06B900ECF0A3EDF0A3EEF0A3EFF022B4
:1006C500A8828583F0D083D0821206DC1206DC1264
:1006D50006DC1206DCE473E493A3C583C5F0C58389
:1006E500C8C582C8F0A3C583C5F0C583C8C582C87F
:0106F50022E2
:1006F600F8E0FBA3A3E0F925F0F0E582158270028D
:070706001583E0FA38F02230
:09070D00EBF0A3EAF0A3E9F022ED
:10071600D083D082F8E4937012740193700DA3A372
:1007260093F8740193F5828883E473740293686086
:06073600EFA3A3A380DF86
:1012D500EFB40A07740D1212E0740A309811A89938
:1012E500B8130CC2983098FDA899C298B811F63079
:0712F50099FDC299F5992251
:10131800E4FFFE1205B6600C0FEF70010E09E970CC
:05132800F20A80EF2233
:100E7A00020EFAE493A3F8E493A34003F68001F286
:100E8A0008DFF48029E493A3F85407240CC8C33379
:100E9A00C4540F4420C8834004F456800146F6DF48
:100EAA00E4800B010204081020408090132DE47E98
:100EBA00019360BCA3FF543F30E509541FFEE4933D
:100ECA00A360010ECF54C025E060A840B8E493A304
:100EDA00FAE493A3F8E493A3C8C582C8CAC583CA2F
:100EEA00F0A3C8C582C8CAC583CADFE9DEE780BEE7
:01133D0000AF
:10073C0075F008758200EF2FFFEE33FECD33CDCC74
:10074C0033CCC58233C5829BED9AEC99E5829840F7
:10075C000CF582EE9BFEED9AFDEC99FC0FD5F0D6D4
:10076C00E4CEFBE4CDFAE4CCF9A88222B800C1B9FE
:10077C000059BA002DEC8BF084CFCECDFCE5F0CB3C
:10078C00F97818EF2FFFEE33FEED33FDEC33FCEB75
:10079C0033FB10D703994004EB99FB0FD8E5E4F930
:1007AC00FA227818EF2FFFEE33FEED33FDEC33FC1D
:1007BC00C933C910D7059BE99A4007EC9BFCE99A11
:1007CC00F90FD8E0E4C9FAE4CCFB2275F010EF2F56
:1007DC00FFEE33FEED33FDCC33CCC833C810D70756
:1007EC009BEC9AE899400AED9BFDEC9AFCE899F891
:0E07FC000FD5F0DAE4CDFBE4CCFAE4C8F92224
:00000001FF
