:0B000E000000000000000000DFF622F0
:100D3C00C2AFC2947FFA12000E7FFA12000ED29448
:100D4C007F3C12000EA29492013094FDD2AFA2010E
:010D5C00B3E3
:010D5D002273
:020CEC00AE0751
:100CEE00C2AF7D01ED601DC2947F0212000E5E60E8
:100CFE0004D2948002C2947F3C12000ED294ED2551
:060D0E00E0FD80E0D2AF21
:010D140022BC
:100C3900C2AF7D01ED6024C2947F0212000ED294EE
:100C49007F0212000E30940442068004EDF452062D
:0F0C59007F3C12000EED25E0FD80D9D2AFAF0633
:010C68002269
:100D9800120D3C920030000A7FCC120CEC7F4412FA
:050DA8000CECA200B3F9
:010DAD002223
:060862008B088A09890AD7
:10086800C2AF120D3C920030004F7FCC120CEC7FCF
:10087800BE120CEC120C39AC07120C3953070FEFEF
:10088800FFAD04EDAB08AA09A90ACF8FF01202C484
:10089800AB08AA09A90A120299FDACF0EC120129C9
:1008A800E4FBFA79C8784012001E120162AB08AA6C
:0E08B80009A90AEE8FF01202C4D2AFA200B35B
:0108C600220F
:100A3E008B0A8A0B890C8D0D120DAE7FA0120C69DC
:100A4E004005120DBF80F1AF0D120C69120DAE7F75
:100A5E00A1120C69E50ED394014019120C96AB0A43
:100A6E00050CE50CAA0B7002050B14F9EF1201FC34
:100A7E00150E80E0120CC1AB0AAA0BA90CEF1201E5
:040A8E00FC020DBF9A
:100AE6008B0A8A0B890C8D0DE50ED39400403F12BC
:100AF6000DAE7FA0120C694005120DBF80F1AF0D3F
:100B0600120C69E50ED3940040DEAB0A050CE50C29
:100B1600AA0B7002050B14F91201E3FF120C6915FA
:0F0B26000E050DE50D547F60BF120DBF80D52267
:0A0DE100120DEBD2A0120DEBC2A020
:050DEB00007F0BDFFE9C
:010DF00022E0
:100DAE00D2A0D2A1120DEBC2A1120DEBC2A0020D68
:010DBE00EB49
:100DBF00C2A0C2A1120DEBD2A0120DEBD2A1020D57
:010DCF00EB38
:020C6900AE07D4
:100C6B007D80ED60125E6004D2A18002C2A1120DE4
:100C7B00E1EDC313FD80EBD2A1120DEBD2A0A2A12B
:0A0C8B009200120DEBC2A0A200B30C
:010C9500223C
:100C9600D2A1120DEB7D80ED6019D2A0120DEB30C2
:100CA600A10442068004EDF45206120DE6EDC313CC
:0A0CB600FD80E4C2A1120DE1AF06BB
:010CC0002211
:100CC100D2A1120DEB7D80ED6019D2A0120DEB3097
:100CD100A10442068004EDF45206120DE6EDC313A1
:0A0CE100FD80E4D2A1120DE1AF0680
:010CEB0022E6
:10077C00043D0101010104313132333408350000EC
:10078C000000000000000421FFFFFFFF0425010111
:0C079C0001010829032003200320032092
:1007F300E52125E0FFA2B0E4334FF521E52225E012
:10080300FFA2B1E4334FF522E52325E0FFA2B2E4D2
:10081300334FF523E52425E0FFA2B3E4334FF5245A
:10082300E4FF74212FF8E6FEB4FF12743D2FF8762F
:1008330001EF25E02435F8E4F608F6801DEE701A82
:10084300743D2FF8E4F6E5726010BF010DEF25E06B
:0E0853002435F80806E6187001060FBF04C42D
:010861002274
:10067700E4F50874252508F8E6FF743D2508F8E633
:100687006F601CEFB4010A74312508F8E6FF120900
:1006970088743D2508F8E6FF74252508F8A607E5C0
:1006A7000825E02435F8E6FE08E6FFD39400EE942B
:1006B70000402FE50825E02429F8E6FC08E6FDD3ED
:1006C700EF9DEE9C402874312508F8E6FF12098853
:1006D700E50825E02429F808746426F618E436F6B8
:1006E700800CE50825E02429F8760308762005081C
:0A06F700E508C39404500302067ADC
:0107010022D5
:1007A8001042C0F9A4B0999282F880908883C6A1BB
:0F07B800868E0852FFFFFFFFFFFFFFFF0141008A
:100B7B00E5A0541F44E0F5A07580FF53A01FE5A02E
:100B8B00541F44C0F5A0AF417480A807088002C36E
:100B9B0013D8FCF58053A01FE5A0541F44E0F5A02B
:100BAB0074522541F8E6F58053A01F0541534107C8
:010BBB002217
:080702008F0B8E0A8D098C0893
:10070A00E4F50CE47B0AFAF9F8AF0BAE0AAD09ACD2
:10071A000812036EAF03740D250CF8A607AF0BAED3
:10072A000AAD09AC08E47B0AFAF9F812036E8F0BDA
:10073A008E0A8D098C08050CE50CB408C6750C07E1
:10074A00740D250CF8E6700A7452250CF876FFD55C
:10075A000CEEC3E50C648094804016740D250CF8E9
:10076A00E62442F8E6FF7452250CF8A607150C8019
:01077A00E19D
:01077B00225B
:1007C700016C0001640102680000016200016B0016
:1007D700046D00000000016A000171000172000150
:0B07E7006700015A00045B00000000E6
:10092B00120A92D2AF120DF1120E007F017E00124D
:10093B0008C7120DD0120D98120677E56260F9E424
:10094B00F562E5727032E56A700512043280E9E5F2
:10095B006AB4010F1209E4E56CD3956440DA120D09
:10096B001580D5E56B60D1E4F56B12055CE4F57091
:0D097B00F56FF56EF56D80C0120BFC80BBB2
:0F0DF100E5A0541F44A0F5A07580AF53A01F22AA
:0F0E0000E5A0541F4480F5A07580FF53A01F226A
:100DD000758CFF758AFF5389F0438904D2A9D28CA0
:010DE00022F0
:03000B00020D5E85
:100D5E00C0E0C0D0E5702401F570E4356FF56FE4A6
:0E0D6E00356EF56EE4356DF56DD0D0D0E03207
:1008C700750B00750A1075090E750800E4FCFDAB81
:1008D7000BAA0AA909A8081202E3E47BE87A03F93C
:1008E700F812036E8F0B8E0A8D098C08C3E4950BE3
:1008F700F50BE4950AF50A74019509F509E49508DD
:10090700F508AF0BAE0AAD09FC780812041F8F6516
:10091700850B6653890F43891085658D85668BD254
:03092700ABD28EC2
:01092A0022AA
:03001B000204CD0F
:1004CD00C0E0C0F0C083C082C0D075D000C000C0F5
:0D04DD0001C002C003C004C005C006C00776
:1004EA0085658D85668B055AE55E2401F55EE435E2
:1004FA005DF55DE4355CF55CE4355BF55B120B7B21
:10050A001207F3E55AC394C84009755A0075620187
:10051A00636701E47FE87E03FDFCAB5EAA5DA95C2C
:10052A00A85BC312040E400F755E00755D00755C12
:07053A0000755B00756B0109
:10054100D007D006D005D004D003D002D001D0000E
:0B055100D0D0D082D083D0F0D0E032B8
:100988008F09E509B43415E56AC394025003056A72
:1009980022E56AC394024043E4F56A22E509B433C8
:1009A80003020B35E509B4321BE5727007120A928F
:1009B8007571012205647B007A007964750E017DEA
:1009C80005020AE6E509B43112E572700475720190
:0C09D80022E572B40105E4F572F571220D
:1009E4007F0774522FF876FF1FBF01F6E571701D63
:1009F400E5A0541F4480F5A07580FB53A01F7F031E
:100A0400120BBC8F6C7558FF5359C18009120E002C
:100A14005358C1535989E56C75F00A84744225F022
:100A2400F8E6F552E56C75F00A8475F00A847442B0
:090A340025F0F8E6F55353537F59
:010A3D002296
:10043200AE68AF697C007D641202638D60AE68AF06
:10044200697C007D641202638F5F120D987F0774CE
:10045200522FF876FF1FBF03F6E5717020E5A05416
:100462001F4480F5A07580FE53A01F7B007A00799F
:1004720068120862E54E52597558FF800A120E0042
:10048200535989E54E5258E56075F00A8474422545
:10049200F0F8E6F552E56075F00A8475F00A8474A6
:1004A2004225F0F8E6F553E55F75F00A84744225BB
:1004B200F0F8E6F554E55F75F00A8475F00A847485
:0A04C2004225F0F8E6F55553547F8B
:0104CC00220D
:10055C00E47B64FAF9F8AF70AE6FAD6EAC6D12035C
:10056C006EAF038F63E47B64FAF9F8AF70AE6FADD6
:10057C006EAC6D12036E8F61E571701DE5A0541F9A
:10058C004480F5A07580FD53A01FAF70AE6FAD6EAB
:10059C00AC6D12070285515922120E007B007A00B5
:1005AC007963750E017D03120A3E7B007A00796136
:1005BC00750E017D04120A3EE56175F064A47C00A1
:1005CC002563FFEC35F0FEE48F708E6FF56EF56DE4
:0F05DC00AD6EAC6D120702E5515258535989228A
:100BFC007F0774522FF876FF1FBF01F6E564D3947C
:100C0C00324003756401E56475F00A84744225F082
:100C1C00F8E6F552E56475F00A8475F00A847442BE
:0C0C2C0025F0F8E6F55353537F53598C24
:010C38002299
:100B35007B007A00796C750E01E4FD120AE67B00F4
:100B45007A007960750E017D01120AE67B007A0054
:100B5500795F750E017D02120AE67B007A007963E2
:100B6500750E017D03120AE67B007A007961750E28
:060B7500017D04020AE606
:100A92007B007A00796C750E01E4FD120A3E7B0040
:100AA2007A007960750E017D01120A3E7B007A00A0
:100AB200795F750E017D02120A3E7B007A0079632E
:100AC200750E017D03120A3E7B007A007961750E74
:100AD200017D04120A3E7B007A007964750E017D65
:040AE20005020A3EC1
:100D1500E571701FE5A0541F4480F5A0E5677004D8
:100D25007580FB22E5A0541F4480F5A075807B5398
:070D3500A01F22120E002294
:020BBC008F08A0
:100BBE00120DAE7F90120C694006120DBF7F0022FF
:100BCE00E5084440FF120C69120DAE7F91120C69BC
:100BDE00120C96120CC18F09120DBFE50975F03279
:0D0BEE00A4FFAEF07C007DFF12020E8F0907
:010BFB0022D7
:100D7C008F15120DAE7F90120C694002800A7F40D5
:0C0D8C00120C69AF15120C69120DBF2289
:10001E00EC4D6011E8497017ED33EC3304600DE4DC
:10002E00FCFFFEFD22E933E8330470F80201CE1224
:10003E00019958046009E4CC248150062850090225
:10004E0001D82840030201D5C0E0EB4A7044B980C4
:10005E0006D0E0FB0201C4EF4E701CBD8008EBFF22
:10006E00EAFEE9FD80EBE98DF0A4FEE5F002010762
:10007E00E9CDF9EAFEEBFFEF89F0A4FCE5F0CE89BD
:10008E00F0A42EFFE435F0CD89F0A42DFEE435F07A
:10009E008067EF4E7005BD80D780C3EF8BF0A4ACA8
:1000AE00F0EE8BF0A42CFCE435F0F8EF8AF0A42CE3
:1000BE00E5F038FCE433CB8DF0A42CFCE5F03BF8F6
:1000CE00EE8AF0A42CFCE5F038F8E433CF89F0A4E6
:1000DE002CFCE5F038CF3400CE89F0A42FFFE5F0EC
:1000EE003EFEE433C98DF0A42EFEE5F039CD8AF044
:1000FE00A42FFFE5F03EFEE43DFD33D0E0FB5007BC
:10010E000BBB000F0201D8EC2CFCEF33FFEE33FEDD
:06011E00ED33FD0201B00B
:1001240075F020800E75F010800575F0087D007E56
:10013400007F003392D530D503120400EC33401015
:10014400EF33FFEE33FEED33FDEC33FCD5F0ED225F
:0E015400E5F0247EA2D513CC92E7CDCEFF229B
:10016200EDD2E7CD33EC3392D524814006E4FFFE95
:10017200FDFC22FCE4CFCECDCC24E0501174FF80F4
:10018200EDC3CC13CCCD13CDCE13CECF13CF047091
:07019200F030D5DE0204008D
:10019900E9D2E7C933E833F892D5EDD2E7CD33ECAC
:0701A90033FC5002B2D52225
:1001B000EC30E7100FBF000C0EBE00080DBD0004B0
:1001C0000BEB6014A2D5EB13FCED92E7FD2274FF5C
:1001D000FCFDFEFF22E480F8A2D574FF13FC7D80B5
:0301E000E480EFC9
:030000000205EB0B
:0C05EB00787FE4F6D8FD758172020632BC
:1001E300BB010689828A83E0225002E722BBFE021A
:0901F300E32289828A83E493224D
:1001FC00BB010689828A83F0225002F722BBFE01E2
:02020C00F322DB
:10020E00BC000BBE0029EF8DF084FFADF022E4CCD4
:10021E00F875F008EF2FFFEE33FEEC33FCEE9DEC9D
:10022E00984005FCEE9DFE0FD5F0E9E4CEFD22EDE3
:10023E00F8F5F0EE8420D21CFEADF075F008EF2F2D
:10024E00FFED33FD4007985006D5F0F222C398FD1E
:05025E000FD5F0EA22BB
:10026300C2D5EC30E709B2D5E4C39DFDE49CFCEEB6
:1002730030E715B2D5E4C39FFFE49EFE12020EC31E
:10028300E49DFDE49CFC800312020E30D507C3E419
:060293009FFFE49EFE2225
:10029900BB010A89828A83E0F5F0A3E02250068730
:1002A900F009E71922BBFE07E3F5F009E3192289F2
:0B02B900828A83E493F5F07401932225
:1002C400BB010A89828A83F0E5F0A3F0225006F785
:0F02D40009A7F01922BBFE06F3E5F009F3192282
:1002E300E88FF0A4CC8BF0A42CFCE98EF0A42CFCBA
:1002F3008AF0EDA42CFCEA8EF0A4CDA8F08BF0A438
:100303002DCC3825F0FDE98FF0A42CCD35F0FCEB96
:100313008EF0A4FEA9F0EB8FF0A4CFC5F02ECD395B
:0F032300FEE43CFCEAA42DCE35F0FDE43CFC22C8
:1003320075F008758200EF2FFFEE33FECD33CDCC82
:1003420033CCC58233C5829BED9AEC99E582984005
:100352000CF582EE9BFEED9AFDEC99FC0FD5F0D6E2
:10036200E4CEFBE4CDFAE4CCF9A88222B800C1B90C
:100372000059BA002DEC8BF084CFCECDFCE5F0CB4A
:10038200F97818EF2FFFEE33FEED33FDEC33FCEB83
:1003920033FB10D703994004EB99FB0FD8E5E4F93E
:1003A200FA227818EF2FFFEE33FEED33FDEC33FC2B
:1003B200C933C910D7059BE99A4007EC9BFCE99A1F
:1003C200F90FD8E0E4C9FAE4CCFB2275F010EF2F64
:1003D200FFEE33FEED33FDCC33CCC833C810D70764
:1003E2009BEC9AE899400AED9BFDEC9AFCE899F89F
:0E03F2000FD5F0DAE4CDFBE4CCFAE4C8F92232
:0E040000C3E49FFFE49EFEE49DFDE49CFC220D
:10040E00EB9FF5F0EA9E42F0E99D42F0E89C45F044
:01041E0022BB
:10041F00E8600FECC313FCED13FDEE13FEEF13FFBB
:03042F00D8F122DF
:1005F70002092BE493A3F8E493A34003F68001F2E6
:1006070008DFF48029E493A3F85407240CC8C33304
:10061700C4540F4420C8834004F456800146F6DFD3
:10062700E4800B010204081020408090077CE47EE0
:10063700019360BCA3FF543F30E509541FFEE493C8
:10064700A360010ECF54C025E060A840B8E493A38F
:10065700FAE493A3F8E493A3C8C582C8CAC583CABA
:10066700F0A3C8C582C8CAC583CADFE9DEE780BE72
:0107F2000006
:00000001FF
