:08000300001803011040000485
:1005ED00D2A37E01EE60135F7004C2A38002D2A37A
:0C05FD00D297C297EE25E0FE80EAD2A360
:0106090022CE
:10065D00E4FF7E01EE600F30A3024207D297C297EE
:06066D00EE25E0FE80EE28
:010673002264
:10067400D293EF25E04480FF1205EDAF051205ED9E
:03068400C29322FC
:10068700D293EF25E04481FF1205ED12065DC29378
:02069700C2A3FC
:01069900223E
:06054A008B318A32893377
:10055000D2937FBE1205EDE4FDAB310533E533AA3E
:10056000327002053214F9120104FF1205ED0DBDBF
:0405700007E7C29344
:010574002264
:060575008B2C8A2D892E5B
:10057B00D2937FBF1205EDE4FD12065DAB2CAA2DC5
:10058B00A92E8D82758300EF12014A0DBD07EAC2B9
:03059B0093C2A365
:01059E00223A
:060434008B218A228923BE
:10043A007B007A007924120575E4252AFFE434202A
:10044A00AB21AA22A9238FF0120197AB21AA22A9D4
:10045A0023900002E52812014A900003E5271201C1
:10046A004A900004E52612014A900005E52512018A
:10047A004A900006E52412014A900007E529020184
:01048A004A27
:10048B00E4F53012016CF52F90000212011DF52DD1
:10049B0090000312011DF52C90000412011DF52B89
:1004AB0090000512011DF52A90000612011DF52979
:1004BB0090000712011DF52E7B007A0079290205A9
:0104CB004AE6
:10059F0078217C007D007BFF7A0079037E007F0845
:1005AF001200DEC293C297E4FD7F071206747B0030
:0705BF007A00792102048B90
:1005C6001009C0F9A4B0999282F880908883C6A1D8
:0F05D600868E0819FFFFFFFFFFFFFFFF010800E0
:1004CC00E5A0541F44E0F5A07580FF53A01FE5A0E4
:1004DC00541F44C0F5A0AF087480A807088002C35D
:1004EC0013D8FCF58053A01FE5A0541F44E0F5A0E1
:1004FC0074192508F8E6F58053A01F050853080762
:01050C0022CC
:0705E50001360002340000A2
:1006430012060AD2AF7F0212037212059FE536B477
:0A06530001FBE4F53612050D80F3FB
:10060A00E5A0541F4480F5A07580FF53A01FE5A004
:0D061A00541F44A0F5A07580AF53A01F220F
:1003720075240075231075220E752100E4FCFDFE24
:10038200AB24AA23A922A8211201B6E47BE87A03AE
:10039200F9F81202418F248E238D228C21C3E49519
:1003A20024F524E49523F52374019522F522E4959E
:1003B20021F521AF24AE23AD22FC78081202D38F9F
:1003C200378524385389F043890185378C85388AEB
:0403D200D2A9D28C4E
:0103D6002204
:03000B000203D716
:1003D700C0E0C0F0C083C082C0D075D000C000C0EC
:0D03E70001C002C003C004C005C006C0076D
:1003F40085378C85388A0535E53570020534120455
:10040400CCC3E5359464E534940040097536017530
:05041400340075350005
:10041900D007D006D005D004D003D002D001D00037
:0B042900D0D0D082D083D0F0D0E032E1
:05062700C4540FFD1F8B
:10062C00BDBF0774192FF876BF2274092DF8E6FEAA
:07063C0074192FF8A6062235
:10050D007B007A007939120434E53DC4540FFD7F28
:10051D000712062CE53D1206287DBF1F12062CE59D
:10052D003E120627E53E1206287DBF1F12062CE55A
:0D053D003F120627E53F540FFD1F02062C5C
:030000000202E613
:0C02E600787FE4F6D8FD75814002032DFE
:10000E00E709F608DFFA8046E709F208DFFA803ED4
:10001E0088828C83E709F0A3DFFA8032E309F608C1
:10002E00DFFA8078E309F208DFFA807088828C8329
:10003E00E309F0A3DFFA806489828A83E0A3F608DD
:10004E00DFFA805889828A83E0A3F208DFFA804CB7
:10005E0080D280FA80C680D4806980F2803380108E
:10006E0080A680EA809A80A880DA80E280CA8033F7
:10007E0089828A83ECFAE493A3C8C582C8CCC5836F
:10008E00CCF0A3C8C582C8CCC583CCDFE9DEE7803F
:10009E000D89828A83E493A3F608DFF9ECFAA9F0BE
:1000AE00EDFB2289828A83ECFAE0A3C8C582C8CC14
:1000BE00C583CCF0A3C8C582C8CCC583CCDFEADE2D
:1000CE00E880DB89828A83E493A3F208DFF980CC8F
:1000DE0088F0EF60010E4E60C388F0ED2402B40488
:1000EE000050B9F582EB2402B4040050AF2323452F
:0600FE00822390005E73F6
:10010400BB010689828A83E0225002E722BBFE02F9
:09011400E32289828A83E493222C
:10011D00BB010CE58229F582E5833AF583E0225097
:10012D0006E92582F8E622BBFE06E92582F8E222E1
:0D013D00E58229F582E5833AF583E49322FB
:10014A00F8BB010DE58229F582E5833AF583E8F0EB
:10015A00225006E92582C8F622BBFE05E92582C897
:02016A00F2227F
:10016C00BB010A89828A83E0F5F0A3E0225006875E
:10017C00F009E71922BBFE07E3F5F009E319228920
:0B018C00828A83E493F5F07401932253
:10019700BB010A89828A83F0E5F0A3F0225006F7B3
:0F01A70009A7F01922BBFE06F3E5F009F31922B0
:1001B600E88FF0A4CC8BF0A42CFCE98EF0A42CFCE8
:1001C6008AF0EDA42CFCEA8EF0A4CDA8F08BF0A466
:1001D6002DCC3825F0FDE98FF0A42CCD35F0FCEBC5
:1001E6008EF0A4FEA9F0EB8FF0A4CFC5F02ECD398A
:0F01F600FEE43CFCEAA42DCE35F0FDE43CFC22F7
:1002050075F008758200EF2FFFEE33FECD33CDCCB0
:1002150033CCC58233C5829BED9AEC99E582984033
:100225000CF582EE9BFEED9AFDEC99FC0FD5F0D610
:10023500E4CEFBE4CDFAE4CCF9A88222B800C1B93A
:100245000059BA002DEC8BF084CFCECDFCE5F0CB78
:10025500F97818EF2FFFEE33FEED33FDEC33FCEBB1
:1002650033FB10D703994004EB99FB0FD8E5E4F96C
:10027500FA227818EF2FFFEE33FEED33FDEC33FC59
:10028500C933C910D7059BE99A4007EC9BFCE99A4D
:10029500F90FD8E0E4C9FAE4CCFB2275F010EF2F92
:1002A500FFEE33FEED33FDCC33CCC833C810D70792
:1002B5009BEC9AE899400AED9BFDEC9AFCE899F8CD
:0E02C5000FD5F0DAE4CDFBE4CCFAE4C8F92260
:1002D300E8600FECC313FCED13FDEE13FEEF13FF09
:0302E300D8F1222D
:1002F200020643E493A3F8E493A34003F68001F2D9
:1003020008DFF48029E493A3F85407240CC8C3330C
:10031200C4540F4420C8834004F456800146F6DFDB
:10032200E4800B01020408102040809005C6E47EA0
:10033200019360BCA3FF543F30E509541FFEE493D0
:10034200A360010ECF54C025E060A840B8E493A397
:10035200FAE493A3F8E493A3C8C582C8CAC583CAC2
:10036200F0A3C8C582C8CAC583CADFE9DEE780BE7A
:0105EC00000E
:00000001FF
