:1003CC00022400001013C0F9A4B0999282F8809016
:1003DC008883C6A1868E080BFFFFFFFFFFFFFFFF80
:0703EC0002080000010A00F5
:10025500E4F52AF529F528F5271203F4D2AF7F0135
:100265007E001202C27F007E007D007C001201DB51
:10027500E525452460FAE4F524F525E52A2401F56C
:100285002AE43529F529E43528F528E43527F52725
:100295007FFF7EE07DF57C05AB2AAA29A928F8D346
:1002A50012012B400BE4F52AF529F528F52780C026
:0D02B500AF2AAE29AD28AC271201DB80B3C3
:1003F400E5A0541F4480F5A07580FF53A01FE5A01D
:0D040400541F44A0F5A07580AF53A01F2227
:1002C200752E00752D10752C0E752B00E4FCFDAB00
:1002D2002EAA2DA92CA82B12000EE47BE87A03F992
:1002E200F81200998F2E8E2D8D2C8C2BC3E4952E17
:1002F200F52EE4952DF52D7401952CF52CE4952B16
:10030200F52BAF2EAE2DAD2CFC780812013C8F23BD
:10031200852E265389F043890185238C85268AD22E
:03032200A9D28CD1
:0103250022B5
:03000B00020326C7
:10032600C0E0C0F0C083C082C0D075D000C000C09D
:0D03360001C002C003C004C005C006C0071E
:1003430085238C85268A1203840509E50970020535
:1003530008C394E8E5089403400C7524007525014F
:0603630075080075090099
:10036900D007D006D005D004D003D002D001D000E8
:0B037900D0D0D082D083D0F0D0E03292
:0801DB008F2E8E2D8D2C8C2B34
:1001E300E4F52FE47B0AFAF9F8AF2EAE2DAD2CAC73
:1001F3002B120099AF037430252FF8A607AF2EAE4C
:100203002DAD2CAC2BE47B0AFAF9F81200998F2E52
:100213008E2D8D2C8C2B052FE52FB408C6752F073B
:100223007430252FF8E6700A740B252FF876FFD566
:100233002FEEC3E52F6480948040167430252FF889
:10024300E62413F8E6FF740B252FF8A607152F8075
:01025300E1C9
:010254002287
:10038400E5A0541F44E0F5A07580FF53A01FE5A02D
:10039400541F44C0F5A0AF0A7480A807088002C3A4
:1003A40013D8FCF58053A01FE5A0541F44E0F5A02A
:1003B400740B250AF8E6F58053A01F050AE50AC365
:0703C40094074003E4F50A71
:0103CB00220F
:0300000002014FAB
:0C014F00787FE4F6D8FD75813702019638
:10000E00E88FF0A4CC8BF0A42CFCE98EF0A42CFC91
:10001E008AF0EDA42CFCEA8EF0A4CDA8F08BF0A40F
:10002E002DCC3825F0FDE98FF0A42CCD35F0FCEB6E
:10003E008EF0A4FEA9F0EB8FF0A4CFC5F02ECD3933
:0F004E00FEE43CFCEAA42DCE35F0FDE43CFC22A0
:10005D0075F008758200EF2FFFEE33FECD33CDCC5A
:10006D0033CCC58233C5829BED9AEC99E5829840DD
:10007D000CF582EE9BFEED9AFDEC99FC0FD5F0D6BA
:10008D00E4CEFBE4CDFAE4CCF9A88222B800C1B9E4
:10009D000059BA002DEC8BF084CFCECDFCE5F0CB22
:1000AD00F97818EF2FFFEE33FEED33FDEC33FCEB5B
:1000BD0033FB10D703994004EB99FB0FD8E5E4F916
:1000CD00FA227818EF2FFFEE33FEED33FDEC33FC03
:1000DD00C933C910D7059BE99A4007EC9BFCE99AF7
:1000ED00F90FD8E0E4C9FAE4CCFB2275F010EF2F3C
:1000FD00FFEE33FEED33FDCC33CCC833C810D7073C
:10010D009BEC9AE899400AED9BFDEC9AFCE899F876
:0E011D000FD5F0DAE4CDFBE4CCFAE4C8F92209
:10012B00EB9FF5F0EA9E42F0E99D42F0E89C45F02A
:01013B0022A1
:10013C00E8600FECC313FCED13FDEE13FEEF13FFA1
:03014C00D8F122C5
:10015B00020255E493A3F8E493A34003F68001F263
:10016B0008DFF48029E493A3F85407240CC8C333A5
:10017B00C4540F4420C8834004F456800146F6DF74
:10018B00E4800B01020408102040809003CCE47E35
:10019B00019360BCA3FF543F30E509541FFEE49369
:1001AB00A360010ECF54C025E060A840B8E493A330
:1001BB00FAE493A3F8E493A3C8C582C8CAC583CA5B
:1001CB00F0A3C8C582C8CAC583CADFE9DEE780BE13
:0103F3000009
:00000001FF
