:0B0612000000000000000000DFF622E6
:1005A000C2AFC2947FFA1206127FFA120612D294D8
:1005B0007F3C120612A29492013094FDD2AFA201A8
:0105C000B387
:0105C1002217
:02057700AE07CD
:10057900C2AF7D01ED601DC2947F021206125E704A
:1005890004C2948002D2947F3C120612D294ED25C3
:06059900E0FD80E0D2AF9E
:01059F002239
:10051900E4FE7D01ED6024C2947F02120612D2949A
:100529007F0212061230940442068004EDF452064A
:0F0539007F3C120612ED25E0FD80D9D2AFAF0650
:010548002290
:1005FC001205A0920030000A7FCC1205777F4412BE
:05060C000577A200B318
:0106110022C6
:100549001205A092003000227FCC1205777FBE12DF
:100559000577120519AC07120519EFFEAD047C00E9
:0D056900E42DFFEC3E8FF0120044A200B321
:010576002262
:1004920008180001000100010001081000310032BB
:1004A20000330034040801010101040CFFFFFFFFC7
:10044A00E4F54974082549F8E6FFFDE54925E02465
:10045A0018F8E6FA08E66D7001EA6022EFB4010DB9
:10046A00E54925E02410F808E6FF120003E54925CE
:10047A00E02418F808E6FF74082549F8A607054994
:07048A00E549C3940440BCE6
:010491002248
:10035300E50C25E0FFA2B0E4334FF50CE50D25E0F5
:10036300FFA2B1E4334FF50DE50E25E0FFA2B2E4A1
:10037300334FF50EE50F25E0FFA2B3E4334FF50F3E
:10038300E4FF740C2FF8E6700CEF25E02418F8E472
:10039300F608F6800BEF25E02418F87600087601BE
:0403A3000FBF04DEA6
:0103A7002233
:1004B2000D22C0F9A4B0999282F880908883C60870
:0C04C2002FFFFFFFFFFFFFFFFF012100E5
:1004D800E5A0541F44E0F5A07580FF53A01FE5A0D8
:1004E800541F44C0F5A0AF217480A807088002C338
:1004F80013D8FCF58053A01FE5A0541F44E0F5A0D5
:10050800742F2521F8E6F58053A01F0521532107F4
:0105180022C0
:080274008F3A8E398D388C376A
:10027C00E4F543E47B0AFAF9F8AF3AAE39AD38ACA1
:10028C00371200EEAF03743B2543F8A607AF3AAE26
:10029C0039AD38AC37E47B0AFAF9F81200EE8F3A34
:1002AC008E398D388C370543E543B407C675430743
:1002BC00743B2543F8E6700A742F2543F876FFD576
:1002CC0043EEC3E543648094804016743B2543F8A9
:1002DC00E62422F8E6FF742F2543F8A60715438081
:0102EC00E130
:0102ED0022EE
:0904CE0001450001480001440051
:1005C2001205DFD2AF7F021202EE1205FC12044ABC
:0D05D200E545B401F8E4F5451203FB80F0A7
:1002EE00754C00754B10754A0E754900E4FCFDFE09
:1002FE00AB4CAA4BA94AA849120063E47BE87A03E7
:10030E00F9F81200EE8F4C8E4B8D4A8C49C3E49552
:10031E004CF54CE4954BF54B7401954AF54AE49532
:10032E0049F549AF4CAE4BAD4AFC78081201808FAF
:10033E0046854C475389F043890185468C85478A0B
:04034E00D2A9D28CD2
:010352002288
:03000B000203A845
:1003A800C0E0C0F0C083C082C0D075D000C000C01B
:0D03B80001C002C003C004C005C006C0079C
:1003C50085468C85478A05441203531204D8E544B3
:0B03D500C394644006754501754400A8
:1003E000D007D006D005D004D003D002D001D00071
:0B03F000D0D0D082D083D0F0D0E0321B
:07000300BF31036348012235
:1005DF00E5A0541F4480F5A07580FF53A01FE5A030
:0D05EF00541F44A0F5A07580AF53A01F223B
:1003FB007F07742F2FF876FF1FBF02F67B007A0062
:10040B0079491205491205FCE54AAE497804CEA29A
:10041B00E713CE13D8F8F54A8E49FF7C007D0A12FC
:10042B00000E74222FF8E6F531AE49AF4A7C007D01
:0E043B000A12000E74222DF8E6F530852E2FE1
:010449002290
:030000000201E812
:0C01E800787FE4F6D8FD75814C02022FF0
:10000E00C2D5EC30E709B2D5E4C39DFDE49CFCEE0D
:10001E0030E715B2D5E4C39FFFE49EFE120193C3F1
:10002E00E49DFDE49CFC800312019330D507C3E4EC
:06003E009FFFE49EFE227C
:10004400BB010A89828A83F0E5F0A3F0225006F707
:0F00540009A7F01922BBFE06F3E5F009F3192204
:10006300E88FF0A4CC8BF0A42CFCE98EF0A42CFC3C
:100073008AF0EDA42CFCEA8EF0A4CDA8F08BF0A4BA
:100083002DCC3825F0FDE98FF0A42CCD35F0FCEB19
:100093008EF0A4FEA9F0EB8FF0A4CFC5F02ECD39DE
:0F00A300FEE43CFCEAA42DCE35F0FDE43CFC224B
:1000B20075F008758200EF2FFFEE33FECD33CDCC05
:1000C20033CCC58233C5829BED9AEC99E582984088
:1000D2000CF582EE9BFEED9AFDEC99FC0FD5F0D665
:1000E200E4CEFBE4CDFAE4CCF9A88222B800C1B98F
:1000F2000059BA002DEC8BF084CFCECDFCE5F0CBCD
:10010200F97818EF2FFFEE33FEED33FDEC33FCEB05
:1001120033FB10D703994004EB99FB0FD8E5E4F9C0
:10012200FA227818EF2FFFEE33FEED33FDEC33FCAD
:10013200C933C910D7059BE99A4007EC9BFCE99AA1
:10014200F90FD8E0E4C9FAE4CCFB2275F010EF2FE6
:10015200FFEE33FEED33FDCC33CCC833C810D707E6
:100162009BEC9AE899400AED9BFDEC9AFCE899F821
:0E0172000FD5F0DAE4CDFBE4CCFAE4C8F922B4
:10018000E8600FECC313FCED13FDEE13FEEF13FF5D
:03019000D8F12281
:1001F4000205C2E493A3F8E493A34003F68001F25A
:1002040008DFF48029E493A3F85407240CC8C3330B
:10021400C4540F4420C8834004F456800146F6DFDA
:10022400E4800B0102040810204080900492E47ED4
:10023400019360BCA3FF543F30E509541FFEE493CF
:10024400A360010ECF54C025E060A840B8E493A396
:10025400FAE493A3F8E493A3C8C582C8CAC583CAC1
:10026400F0A3C8C582C8CAC583CADFE9DEE780BE79
:0104D7000024
:10019300BC000BBE0029EF8DF084FFADF022E4CC50
:1001A300F875F008EF2FFFEE33FEEC33FCEE9DEC19
:1001B300984005FCEE9DFE0FD5F0E9E4CEFD22ED5F
:1001C300F8F5F0EE8420D21CFEADF075F008EF2FA9
:1001D300FFED33FD4007985006D5F0F222C398FD9A
:0501E3000FD5F0EA2237
:00000001FF
