:10039D00101BC0F9A4B0999282F880908883C6A1F1
:1003AD00868E082BFFFFFFFFFFFFFFFF04410101BA
:1003BD0001010435313233340839000000000000EA
:1003CD00000002080000040A01010101080E03E803
:0F03DD0003E803E803E80416FFFFFFFF011A001F
:1004B200120495D2AF7F027E001203397F007E00C4
:0C04C2007D007C001201DB12025580FB63
:10049500E5A0541F4480F5A07580FF53A01FE5A07B
:0D04A500541F44A0F5A07580AF53A01F2286
:0704350074352545F8E6FFD0
:02043C008F46E9
:10043E00E546B4310F0509E50970020508AE08FF5F
:10044E00EE1201D6E546B4320574021201CAE54633
:10045E00B4330574031201CAE546B43405740412AC
:02046E0001CAC1
:010470002269
:10025500E4F545740A2545F8E6FF74412545F8E6B9
:100265006F6015EFB4010312043574412545F8E6B6
:10027500FF740A2545F8A607E54525E02439F8E683
:10028500FE08E6FFD39400EE94004028E54525E0FE
:10029500240EF8E6FC08E6FDD3EF9DEE9C40211206
:1002A5000435E54525E0240EF80874C826F618E45B
:1002B50036F6800CE54525E0240EF876030876E849
:0902C5000545E545C39404408A97
:0102CE00220D
:1002CF00E51625E0FFA2B3E4334FF516E51725E059
:1002DF00FFA2B2E4334FF517E51825E0FFA2B1E412
:1002EF00334FF518E51925E0FFA2B0E4334FF519A8
:1002FF00E4FF74162FF8E6FEB4FF1274412FF87660
:10030F0001EF25E02439F8E4F608F68018EE7015B1
:10031F0074412FF8E4F6EF25E02439F80874042629
:09032F00F618E436F60FBF04C90C
:0103380022A2
:1003390075480075471075460E754500E4FCFDAB20
:1003490048AA47A946A84512000EE47BE87A03F9B2
:10035900F81200998F488E478D468C45C3E495481D
:10036900F548E49547F54774019546F546E4954502
:10037900F545AF48AE47AD46FC780812012B8F33DF
:100389008548345389F043890185338C85348AD271
:03039900A9D28C5A
:01039C00223E
:1003ED00E5A0541F44E0F5A07580FF53A01FE5A0C4
:1003FD00541F44C0F5A0AF1A7480A807088002C32B
:10040D0013D8FCF58053A01FE5A0541F44E0F5A0C0
:10041D00742B251AF8E6F58053A01F051AE51AD39B
:07042D0094074003E4F51AF7
:0104340022A5
:1001CA002509F509E43508F508FEAF093395E0FD80
:0101DA00FC28
:0801DB008F4A8E498D488C47C4
:1001E300E4F54BE47B0AFAF9F8AF4AAE49AD48AC03
:1001F30047120099AF03744C254BF8A607AF4AAEDC
:1002030049AD48AC47E47B0AFAF9F81200998F4AE2
:100213008E498D488C47054BE54BB407C6754B0794
:10022300744C254BF8E6700A742B254BF876FFD5F2
:100233004BEEC3E54B648094804016744C254BF819
:10024300E6241BF8E6FF742B254BF8A607154B8015
:01025300E1C9
:010254002287
:03000B000204717B
:10047100C0E0C0D075D000C000C006C00785338C75
:1004810085348A1203ED1202CFD007D006D000D0F6
:04049100D0D0E032B5
:0300000002013EBC
:0C013E00787FE4F6D8FD7581530201853E
:10000E00E88FF0A4CC8BF0A42CFCE98EF0A42CFC91
:10001E008AF0EDA42CFCEA8EF0A4CDA8F08BF0A40F
:10002E002DCC3825F0FDE98FF0A42CCD35F0FCEB6E
:10003E008EF0A4FEA9F0EB8FF0A4CFC5F02ECD3933
:0F004E00FEE43CFCEAA42DCE35F0FDE43CFC22A0
:10005D0075F008758200EF2FFFEE33FECD33CDCC5A
:10006D0033CCC58233C5829BED9AEC99E5829840DD
:10007D000CF582EE9BFEED9AFDEC99FC0FD5F0D6BA
:10008D00E4CEFBE4CDFAE4CCF9A88222B800C1B9E4
:10009D000059BA002DEC8BF084CFCECDFCE5F0CB22
:1000AD00F97818EF2FFFEE33FEED33FDEC33FCEB5B
:1000BD0033FB10D703994004EB99FB0FD8E5E4F916
:1000CD00FA227818EF2FFFEE33FEED33FDEC33FC03
:1000DD00C933C910D7059BE99A4007EC9BFCE99AF7
:1000ED00F90FD8E0E4C9FAE4CCFB2275F010EF2F3C
:1000FD00FFEE33FEED33FDCC33CCC833C810D7073C
:10010D009BEC9AE899400AED9BFDEC9AFCE899F876
:0E011D000FD5F0DAE4CDFBE4CCFAE4C8F92209
:10012B00E8600FECC313FCED13FDEE13FEEF13FFB2
:03013B00D8F122D6
:10014A000204B2E493A3F8E493A34003F68001F215
:10015A0008DFF48029E493A3F85407240CC8C333B6
:10016A00C4540F4420C8834004F456800146F6DF85
:10017A00E4800B010204081020408090039DE47E75
:10018A00019360BCA3FF543F30E509541FFEE4937A
:10019A00A360010ECF54C025E060A840B8E493A341
:1001AA00FAE493A3F8E493A3C8C582C8CAC583CA6C
:1001BA00F0A3C8C582C8CAC583CADFE9DEE780BE24
:0103EC000010
:00000001FF
